:020000040800F2
:10000000480E0020010300087F2F00085F29000828
:100010007D2F0008190800080538000800000000BE
:100020000000000000000000000000004102000885
:10003000E5080008000000009D0200083D310008AE
:100040001B0300081B0300081B0300080D300008F9
:100050001B0300081B0300081B0300081B03000808
:10006000F90800081B030008090900081B03000821
:100070001B0300081B0300081B0300081B030008E8
:100080001B0300081B0300081B03000800000000FE
:100090000000000000000000000000000F09000840
:1000A0001B030008ED3100081B0300081B030008B8
:1000B0001B0300081B0300081B0300081B030008A8
:1000C0001B0300081B0300081B0300081B03000898
:1000D0001B030008C53700081B03000800000000D0
:1000E000E90800081B0300081B03000800000000CB
:1000F0000000000000000000000000001B030008DA
:10010000000000001B0300081B0300081B0300087D
:1001100000000000000000000000000000000000DF
:100120001B0300081B0300081D0800081B03000830
:100130001B03000800000000000000000000000099
:100140000000000000000000000000001B03000889
:10015000290800081B030008350800081B030008D5
:100160001B0300081B030008000000000000000043
:10017000000000000000000000000000000000007F
:10018000000000001B030008000000000000000049
:100190001B0300081B03000800F002F800F041F800
:1001A0000AA090E8000C82448344AAF10107DA45D2
:1001B00001D100F036F8AFF2090EBAE80F0013F0E3
:1001C000010F18BFFB1A43F001031847A46D00008C
:1001D000C46D0000103A24BF78C878C1FAD852071D
:1001E00024BF30C830C144BF04680C6070470000B1
:1001F0000023002400250026103A28BF78C1FBD830
:10020000520728BF30C148BF0B607047642900F017
:100210005781002070471FB503F09AFC1FBD10B531
:1002200010BD00F02AFA1146FFF7F5FF03F036FB88
:1002300000F048FA03B4FFF7F2FF03BC00F050FAF5
:100240002C4B19680868B0E8F04F80F30988BFF3B9
:100250006F8F4FF0000080F311887047000000009E
:1002600008480068006880F308884FF0000080F3B9
:10027000148862B661B6BFF34F8FBFF36F8F00DF94
:1002800000BF00BF08ED00E0DFF80C00016841F49A
:1002900070010160704700BF88ED00E0EFF3098056
:1002A000BFF36F8F134B1A681EF0100F08BF20EDBD
:1002B000108A20E9F04F106009B44FF0500080F32D
:1002C0001188BFF34F8FBFF36F8F03F07FFB4FF0A9
:1002D000000080F3118809BC19680868B0E8F04F85
:1002E0001EF0100F08BFB0EC108A80F30988BFF32E
:1002F0006F8F704714000020EFF3058070470000F7
:100300000948804709480047FEE7FEE7FEE7FEE7A9
:10031000FEE7FEE7FEE7FEE7FEE7FEE704480549E5
:10032000054A064B70470000DD31000899010008BE
:1003300048080020480E0020480A0020480A0020F3
:1003400053EA020C00F069802DE9F04B4FF00006F3
:10035000002B1FBFB3FA83F503FA05F424FA05F660
:100360005E4012BF1643B2FA82F502FA05F4C5F1F7
:1003700020051EBF22FA05FC44EA0C04203556EA8B
:10038000044C4FEA144418BF641C4FF000084FF0AF
:100390000009904271EB030C39D3002919BFB1FA5F
:1003A00081F701FA07F6B0FA80F700FA07F6C7F10D
:1003B00020071EBF20FA07FC46EA0C062037B6FBD2
:1003C000F4FCA7EB0507103F07F01F0BCBF120064D
:1003D0000CFA0BFB2CFA06F644BFB3460026202F7E
:1003E000A4BF5E464FF0000B5BEA060C08BF4FF05F
:1003F000010B19EB0B09ABFB027C48EB0608C01B99
:1004000006FB02CC0BFB03CC71EB0C01C1E70B46E6
:10041000024641464846BDE8F08B13B54FF0000058
:100420004FF00001AFF30080BDE81C4070470000B2
:100430000FB41CB5074B06AA7B446946009005988B
:1004400000F003F90020694600F012F91CBC5DF8C9
:1004500014FB0000350200002DE9F0410E46044671
:10046000002020622046E168884730B3252805D067
:10047000D4E901219047206A401CF2E7E168204658
:1004800000278847050018D0A5F14100192802D897
:1004900020354FF400673246294620462760FFF793
:1004A000B5FE40B1012804D0F61D26F00706083637
:1004B000D8E7361DD6E72846DAE7206ABDE8F0819E
:1004C0002DE9F0410646002410687529314616A52D
:1004D00010D0AFF30080002802DA404213A507E0F5
:1004E00031688A0701D512A502E0490704D511A594
:1004F000012401E0AFF3008000210A2206F1240765
:1005000009E0B0FBF2FCB0FBF2F302FB1C00303060
:1005100078541846491C0028F3D123462A46304611
:10052000BDE8F04100F032B8000000002D000000EE
:100530002B000000200000004FF0000200B5134621
:1005400094469646203922BFA0E80C50A0E80C50F3
:10055000B1F12001BFF4F7AF090728BFA0E80C50A4
:1005600048BF0CC05DF804EB890028BF40F8042B9D
:1005700008BF704748BF20F8022B11F0804F18BF0A
:1005800000F8012B70477047704770472DE9F0471E
:100590000D4699469246044600F1240801688806F3
:1005A00004D5E06921F01001216000E00120A8429B
:1005B00001DD471B00E00027A1697A1902EB090061
:1005C000081AA0612078C00602D42046AFF300804C
:1005D000002608E0D4E901211AF806009047206AB5
:1005E000401C761C20624E45F4DB2078C0060AD5FC
:1005F0002046AFF3008006E0D4E901213020904787
:10060000206A401C2062381EA7F10107F4DC07E0D5
:10061000D4E9012118F805009047206A401C2062A7
:10062000281EA5F10105F3DC2046AFF300802078F9
:10063000000602D50220BDE8F0870120FBE700009C
:1006400001694A1C02610878704700B58FB0CDE996
:1006500001310021059105497944CDE90310114686
:100660006846FFF7F9FE0FB000BD0000E5FFFFFF91
:100670000A6802F8010B0A607047754600F02CF812
:10068000AE4605006946534620F00700854618B07F
:1006900020B5FFF743FEBDE820404FF000064FF0C5
:1006A00000074FF000084FF0000B21F00701AC46A7
:1006B000ACE8C009ACE8C009ACE8C009ACE8C009C6
:1006C0008D46704710B50446AFF300802046BDE864
:1006D0001040FFF7AFBD000000487047E80700205A
:1006E00001491820ABBEFEE726000200704700005B
:1006F000464910B54A6822F440324A604A68436865
:100700001A434A6001684A6822F480724A600168AC
:100710004A68036942EA03224A6001684A6822F093
:1007200040724A6001684A6883681A434A600168F7
:100730008A6822F400628A6001688A68C3681A4382
:100740008A60816A6FF07062D14201688A6822F023
:1007500070628A6001688A680CD0836A1A438A6072
:1007600001688A6822F040528A6001688A68C36A18
:100770001A4301E022F040528A6001688A6822F040
:1007800002028A6001688A68037E42EA43028A6044
:1007900090F82010002901684A680FD042F40062E6
:1007A0004A6001684A6822F460424A6001684A6807
:1007B000174C436A04EB43331A4301E022F400620E
:1007C0004A600168CA6A22F47002CA620168CA6A91
:1007D000838B104C04EB03531A43CA6201688A6886
:1007E00022F400728A6001688A6890F8303042EA28
:1007F00043228A6001688A6822F480628A60016804
:100800008A68406942EA8020886010BD0023014068
:1008100000E0FFFF0000F0FFFEE70000014800F0ED
:10082000E1B9000068070020014800F0DBB90000D2
:1008300008060020014800F0D5B900006806002035
:1008400001681823CAB2103AB2FBF3F2054B6FF3FA
:100850000901032A9B5CC36500D9091D816508460F
:10086000704700005A3B000810B5014600208B6914
:100870008A6A4FF0C07453B1B3F5005F15D072B1FE
:10088000012A0CD0022A0AD0032A09D104E01AB1A5
:10089000012A06D0022A03D1C96AC90100D5012064
:1008A00010BDC96AA142FAD010BD002AF7D0012AB2
:1008B000F2D0022AF3D0032AF3D010BD30B5046879
:1008C000256825F480252560046863608368402BD3
:1008D000036803D099600068C26030BD9A60006808
:1008E000C16030BD7047000002490120487000031C
:1008F00000F0EABA000000200249012088700420BC
:1009000000F0E2BA00000020102000F0DDBA202044
:1009100000F0DABA78B50024009490F83C20012A5F
:1009200019D0012280F83C200A6807230568092AAB
:1009300013D9EE680A3A02EB420293409E43EE60FE
:100940000B788A680A3B03EB43039A400368DD682F
:100950002A43DA6010E0022078BD2E6902EB4202E1
:1009600093409E432E610B788A6803EB43039A40C1
:1009700003681D692A431A614A681F23072A13D294
:1009800005686E6B521E02EB820293409E436E63BB
:100990000A8893B20A79521E02EB820293400268DF
:1009A000556B2B43536327E005680D2A12D22E6B3B
:1009B000D21F02EB820293409E432E630B790A887A
:1009C000DB1F92B203EB83039A4003681D6B2A433B
:1009D0001A6311E0EE6A0D3A02EB820293409E43E5
:1009E000EE620B790A880D3B92B203EB83039A40C7
:1009F0000368DD6A2A43DA621B4B0568194A9D4287
:100A00000AD10D68122D07D1556825F400055560EF
:100A1000556845F48005556005689D421DD1134D0C
:100A20000B68AB4201D0112B17D1536823F480031C
:100A30005360536843F4000353600968A9420CD122
:100A40000B490C4A0968B1FBF2F101EB8101490045
:100A500000E0491E00910029FBD180F83C400020B5
:100A600078BD00000023014000200140120000106A
:100A70001000002040420F0070B504004FF0000548
:100A800003D0206C002610B107E0012070BD204685
:100A900000F01CF8666484F83C60206CC00610D43A
:100AA000206C20F4885040F0020020642046FFF7BC
:100AB0001FFE6664206C20F0020040F001002064FC
:100AC00000E0012584F83C60284670BD10B586B072
:100AD000044614216846FFF72FFD1149206888421B
:100AE0001CD110480021026842F480720260006844
:100AF00000F4807005900B481438026842F001023F
:100B00000260006800F001000590022000900320C0
:100B1000CDE901016946044800F0E2F906B010BDD4
:100B20000020014044380240000002402DE9F0411D
:100B30000446876D00F0CAFA064694F83500002591
:100B4000022806D08020606584F834500120BDE87A
:100B5000F0812068016821F0160101602068416978
:100B600021F080014161206C08B9A06C20B120689F
:100B7000016821F0080101602068016821F001018D
:100B800001600CE000F0A2FA801B052807D92020A4
:100B90006065032084F8350084F83450D7E7206876
:100BA0000068C007EED194F85C103F208840B86020
:100BB000012084F8350084F834500020C7E790F80D
:100BC0003510022903D0802141650120704705219D
:100BD00080F835100068016821F0010101600020F3
:100BE000704700002DE9F84304464FF00009CDF8A6
:100BF000009063484FF41651A56D0068B0FBF1F703
:100C00002E6894F85C10082000FA01F131420FD0F0
:100C100021680A6852070BD50A6822F004020A60AC
:100C200094F85C108840A860606D40F00100606539
:100C300094F85C104FF0010808FA01F0304208D037
:100C400021684969090604D5A860606D40F002007A
:100C5000606594F85C1004208840304208D0216818
:100C60000968890704D5A860606D40F004006065DC
:100C700094F85C1010208840304218D02168096830
:100C8000090714D5A86020680168490304D50068E5
:100C9000000308D5A16C07E00168C90503D4016809
:100CA00021F008010160216C09B12046884794F8C1
:100CB0005C1020208840304231D021680968C90684
:100CC0002DD5A86094F8350005282068016806D065
:100CD000490347D5006800031DD4616C1CE021F076
:100CE000160101602068416921F080014161206C9A
:100CF00008B9A06C20B12068016821F008010160EA
:100D000094F85C103F208840A86084F8358084F80F
:100D10003490216D1FE0E16B09B120468847606D7A
:100D200000282BD0606DC00714D0052084F8350052
:100D30002068016821F0010101600098401C0090CA
:100D4000B84203D820680068C007F6D184F835801F
:100D500084F83490E16C002910D001B02046BDE841
:100D6000F04308470168C905D5D4016821F0100196
:100D7000016084F8358084F83490CCE7BDE8F883CE
:100D8000100000202DE9F041044600F09FF90646CE
:100D90005CB1022084F83500002584F834502068C6
:100DA000016821F0010101600DE00120BDE8F08142
:100DB00000F08CF9801B052805D9202060650320F0
:100DC00084F83500F2E720680068C007F0D1226897
:100DD000116820480140D4E901031843D4E90336DF
:100DE0003343184363691843A3691843E3691843FD
:100DF000236A18430843616A042903D1D4E90B1319
:100E000019430843106020684069666A20F00701B2
:100E100030460E43012704280CD1A06A0643E06A3D
:100E200040B12046FFF720FD20B14020606584F8E6
:100E30003570BAE7206846612046FFF701FD94F857
:100E40005C203F2191408160656584F83570002009
:100E5000ACE700003F8010F02DE9F0410446866DBC
:100E600090F83400002501280DD0012084F83400CA
:100E700094F835700020012F07D084F83400022543
:100E80002846BDE8F0810220FBE7022784F8357090
:100E900060652046FFF712FD94F85C103F20884003
:100EA000B0602068016841F016010160206C20B13B
:100EB0002068016841F0080101602068016841F084
:100EC00001010160DCE77047044910B50A6802427D
:100ED00002D00860FFF7F7FF10BD0000143C01408E
:100EE0002DE9F84FDFF8B8A10022012403254FF0C7
:100EF0000F090AF1040BAAF1040E00BF0B6804FAF3
:100F000002F63340B34273D10F7907F00307012F84
:100F100001D0022F16D187684FEA420805FA08FC73
:100F200027EA0C07D1F80CC00CFA08FC4CEA070CB5
:100F3000C0F808C04768B7430E79C6F3001696405C
:100F40003E4346600E79F643B6070DD0C76856009B
:100F500005FA06FC27EA0C07D1F808C00CFA06FCD3
:100F60004CEA070CC0F80CC00E7906F00306022EFE
:100F700010D1D60800EB8608D8F8206057074FEA52
:100F8000D76C09FA0CF7BE430F6907FA0CF7374321
:100F9000C8F8207006684FEA420C05FA0CF7BE4309
:100FA0000F7907F0030707FA0CF7374307604E681D
:100FB00016F4403F6DD03B4E376847F480473760AA
:100FC000366822F0030706F480460096364E07EB9B
:100FD000060CDCF8086897073F0F09FA07F826EABD
:100FE0000806DFF8C880404503D14FF000081EE036
:100FF0004FE0DFF8BC80404502D14FF0010816E019
:10100000DFF8B080404502D14FF002080FE0DFF872
:10101000A880404502D14FF0030808E0DFF89C802B
:10102000404502D14FF0040801E04FF0070808FAEC
:1010300007F848EA0608CCF80888DAF8006057464E
:10104000D1F804C09E435FEACC2C00D51E433E601D
:10105000DBF800605F46D1F804C09E435FEA8C2C49
:1010600000D51E433E60DEF800607746D1F804C02C
:101070009E435FEA8C3C00D51E433E60084F083F0C
:101080003E68D1F804C09E435FEACC3C00D51E43C5
:101090003E60521C102AFFF431AFBDE8F88F00000B
:1010A000083C01404438024000300140000002404A
:1010B0000004024000080240000C02400010024000
:1010C0000AB1816170470904FBE7000001488068AC
:1010D0007047000004000020024881680278114433
:1010E00081607047040000200B4810B5016841F48E
:1010F00000710160016841F480610160016841F4A0
:1011000080710160032000F099F80F2000F006F8CC
:1011100000F04AF8002010BD003C024030B5054602
:101120001C4887B00024016841F00101016000689B
:1011300006A900F00100009001A800F0D5F900F028
:1011400003FA1549154AB0FBF1F11548491E026032
:1011500040F2E732C0E90324C0E90114846100F0E1
:101160009BFF040012D10E4800F0C4FF04000DD113
:10117000192000F035F8102D07D200222946192039
:1011800000F03CF80748056000E0012407B0204665
:1011900030BD00004438024040420F0000000140D2
:1011A0006C000020080000200C4882B0016841F467
:1011B00080410160006800F4804000900748001FF3
:1011C000016841F0805101600068002200F0805009
:1011D00000900F21901E02B000F010B84438024079
:1011E000002809DB00F01F02012191404009800026
:1011F00000F1E020C0F8001170470000F0B40E4B81
:101200001B680C46C3F30223C3F10705042D00D964
:101210000425191D072901D2002300E0DB1E012649
:1012200006FA05F1491E214099409E40761E16405F
:101230003143F0BC02F0E7BA0CED00E0064900F0E3
:10124000070208684FF6FF03184040EA0220034AED
:1012500010430860704700000CED00E00000FA0544
:101260002DE9F843044600684FF00109C1074FF02B
:10127000000601D1400729D5DFF82081C8F8686051
:10128000FFF724FF0746464D05E000BFFFF71EFFAE
:10129000C01B022859D828680001F7D4A068217B18
:1012A000800140EA0170616808433D49843108606B
:1012B000C8F86890FFF70AFF074604E0FFF706FF4B
:1012C000C01B022841D828680001F7D52078800784
:1012D00052D533484030016841F0805101600068C8
:1012E000304D00F080500090286840F480702860F5
:1012F000FFF7ECFE074604E0FFF7E8FEC01B0228FC
:1013000023D82868C005F7D5254D7035286810F416
:10131000407020D0218A01F4407181421BD028689E
:10132000214920F44070C1F800900E6028602868C0
:10133000C00710D0FFF7CAFE064641F2883707E023
:10134000FFF7C4FE801BB84202D90320BDE8F88332
:1013500028688007F4D521691148C1F301220830BB
:10136000032A12D0016821F4F81101602868218A4B
:10137000C1F30B01084328602078000703D50B490F
:10138000207DC1F8E0010020E0E70268084B22F46C
:10139000F81219400A430260E8E7000000004742E3
:1013A0000038024000700040400E474200104742A3
:1013B000FFFCFF0F2DE9F0470E46050065D0DFF872
:1013C0001481D8F80000F7B200F00700B04207D24D
:1013D00088F80070D8F8000000F00700B04254D13F
:1013E00028683D4C810712D5400703D5206840F49A
:1013F000E05020602878000703D5206840F4604062
:1014000020602068A96820F0F00008432060287858
:10141000C0072DD0304968680839012812D0022849
:1014200013D0032811D00968890700292DDA216813
:1014300021F0030101432160FFF748FE814641F29C
:10144000883A0EE009688903EFE709688901ECE74B
:10145000FFF73CFEA0EB0901514502D90320BDE88E
:10146000F0872068696800F00C00B0EB810FEFD1C5
:10147000D8F80010404601F00701B14207D90770C3
:10148000006800F00700B04201D00120E7E72878AB
:10149000400705D52068E96820F4E0500843206043
:1014A0002878000706D52068296920F4604040EAC2
:1014B000C100206000F058F82168084AC1F3031108
:1014C000515CC8400649086006480068FFF726FEE0
:1014D0000020C4E7003C024008380240623B00089C
:1014E00010000020080000200F2202600C4A136840
:1014F00003F003034360136803F0F0038360136891
:1015000003F4E053C36012684FF4E05303EAD202DD
:1015100002610448006800F007000860704700009E
:1015200008380240003C0240044805490068096848
:10153000044AC1F38221515CC8407047100000206A
:1015400008380240723B00080448054900680968F1
:10155000044AC1F34231515CC8407047100000207A
:1015600008380240723B0008154810B5006810F0BA
:101570000C02144813D01449042A0FD0082A0ED1A3
:101580000F4C241F2268236802F03F025B0207D53C
:101590002068C0F38810A0FB010106E0084610BDDA
:1015A0002168C1F38811A1FB00010023FEF7C8FEEA
:1015B0002168C1F30141491C4900B0FBF1F010BDA5
:1015C000083802400024F40040787D012DE9F84FEE
:1015D00004006ED02078DFF84C93C007A9F1040511
:1015E0004AD009F104000168C1F38101012908D042
:1015F0000068C0F3810002280AD1D9F80000400237
:1016000006D52868800337D560680028E1D033E02C
:101610006068B0F5803F10D0B0F5A02F286810D0DA
:1016200020F480302860286820F4802028606068DA
:10163000A8B1FFF74BFD06460DE0286840F4803066
:10164000F4E740F480202860F7E700BFFFF73EFD95
:10165000801B642873D828688003F7D50CE0FFF757
:1016600035FD064605E000BFFFF730FD801B64280E
:10167000F0D828688003F7D42078DFF8AC828007A0
:101680004FF0000A3ED5A748001D016811F00C0F6D
:1016900008D00068C0F3810002280BD1D9F80000FF
:1016A000400207D42868800716D5E068012800D1D9
:1016B00012E033E1E068B8B10120C8F80000FFF79C
:1016C00005FD064605E000BFFFF700FD801B022870
:1016D000C0D828688007F7D52868216920F0F8006D
:1016E00040EAC10028600DE0C8F800A0FFF7EEFC5A
:1016F000064604E0FFF7EAFC801B02281FD8286892
:101700008007F7D42078000722D5864F8748616983
:10171000703771B101210160FFF7D8FC064604E083
:10172000FFF7D4FC801B022809D838688007F7D55A
:101730000EE0C0F800A0FFF7C9FC064605E082E015
:10174000FFF7C4FC801B02287DD838688007F7D4D7
:101750002078400768D5DFF8CCB100270BF13C0BAF
:10176000DBF80000C0000BD4DBF8001041F0805122
:10177000CBF80010DBF80000012700F0805000904B
:101780006B4E3068C00510D4306840F48070306013
:10179000FFF79CFC009005E0FFF798FC0099401AC9
:1017A000022850D83068C005F6D55E4EA0686C3669
:1017B00001280FD00528306810D020F001003060DB
:1017C000306820F004003060A068B8B1FFF77EFCFC
:1017D00000900FE0306840F00100F4E740F00400B2
:1017E0003060F7E7FFF772FC0099411A41F2883048
:1017F000814266D830688007F4D50EE0FFF766FCBA
:10180000009007E0FFF762FC0099411A41F288302E
:10181000814256D830688007F4D42FB1DBF800102D
:1018200021F08051CBF80010A069C8B33D49091DD3
:101830000968C1F3810102294AD00228504607D025
:10184000C8F8600000E03CE0FFF740FC04463BE0E5
:101850004746C8F86000FFF739FC064605E000BFC0
:10186000FFF734FC801B02282BD828688001F7D4AE
:10187000D4E907010843A16A2E4A490802EB014155
:10188000626A41EA8211084394F82C1040EA01612F
:10189000C9F8001001203866FFF718FC044606E07E
:1018A0003EE000BFFFF712FC001B022809D82868A1
:1018B0008001F7D534E000BFFFF708FC001B0228C9
:1018C00002D90320BDE8F88F28688001F4D427E00E
:1018D0000128F7D0D9F80000E26900F480019142B4
:1018E0001CD1226A00F03F01914217D147F6C07126
:1018F000626A0140B1EB821F10D1A26A4FF0FF3340
:1019000000F4403103EB5202B1EB024F06D194F8E0
:101910002C1000F07060B0EB016F01D00120D1E716
:101920000020CFE70438024000004742800E4742C3
:10193000007000400000FFFF0068503050F82100A8
:1019400070470068503040F8212070472DE9F84377
:1019500089463D494FF4FA4C4FF47A730F68B7FB50
:10196000FCF159430091017F012965D001250577DC
:10197000022141770368CA215962036853215962E1
:1019800001688B684FF0FF045FEA43584FF0000393
:101990004FF003060CD500BFDDF80080B8F1010858
:1019A000CDF800804AD0D1F80C805FEA4878F3D4B3
:1019B000D1F8088028F48068C1F808800168D1F85F
:1019C0000C8008F0800868F49068C1F80C80B7FBC0
:1019D000FCF14FF47A77794300910168009F7F1EF4
:1019E00000972BD0CF687F07F8D58E6826F00706C2
:1019F0008E6001688E6816438E600268C2F814908B
:101A000012490A6842F480020A60104908310A68E3
:101A100042F480020A6001688A6842F480428A6067
:101A200001688A6842F480628A6001684C62457786
:101A300003770020BDE8F8830220FBE74C6246777D
:101A400003770320F6E7000010000020003C01406F
:101A50007047000010B50A4904464FF48000086042
:101A60002068C168490508D5C16801F0800161F4AA
:101A70009061C1602046FFF7EBFF0120607710BD49
:101A8000143C014010B5040002D0607F10B106E0A4
:101A9000012010BD00202077204600F041F80220F0
:101AA00060772068C168C943C90632D5CA2141623E
:101AB000216853204862204601F06EFA20BB20685E
:101AC0008168164A11408160216888686268104305
:101AD000D4E904231A43104388602168E068086150
:101AE00020680169228941EA02410161204601F032
:101AF00077FA48B921680A6C22F480220A642168C6
:101B00000A6CA3691A430A642268FF21516208B172
:101B100010BD00200121617710BD0000BFFF8FFFC5
:101B200010B586B0044618216846FEF705FD0C493D
:101B30002068884211D10B490120086002200090E2
:101B4000C00104906846FFF78BFB002205210320AB
:101B5000FFF754FB0320FFF743FB06B010BD000066
:101B6000002800403C0E474270B50446007F0B46FB
:101B7000012819D00126267702206077B2B1987823
:101B8000D97840EA014558781978000240EA413096
:101B900005432168CA2048622168532048622046D4
:101BA00001F0FAF9D0B122E0022070BD5878C106E8
:101BB00003D500F0EF000A305870D87801F0E0F952
:101BC0000204587801F0DCF942EA0022987801F02A
:101BD000D7F90243187842EA4035DAE7074805406A
:101BE00020684560204601F0FBF900B9667722685D
:101BF000FF2151620021217770BD00003FFFFF00EF
:101C00002DE9F0410446007F0D46012823D04FF016
:101C1000010884F81C800220607720680027806813
:101C20004FEA4060D2B1002800DBEF70A878297835
:101C300040EA01466878E978000240EA81500643AC
:101C40002168CA204862216853204862204601F07A
:101C5000A3F9B8B12CE00220BDE8F081002800DB38
:101C6000EF70287801F08CF90204687801F088F9A7
:101C700042EA0022A87801F083F90243E87842EAB8
:101C80008056DDE70D4806402068066020688168C0
:101C900021F480218160D5E90301084321688A6825
:101CA00010438860204601F09BF908B984F81D8034
:101CB0002268FF2151622777CEE700007F7F7F00F7
:101CC00070B504460B482168C860FFF7FFF9054668
:101CD0004FF47A7607E000BFFFF7F8F9401BB042F7
:101CE00001D9032070BD2068C0688006F4D50020AB
:101CF00070BD00005F3F010070B5040009D0606A4C
:101D0000002540B125616561A56294F8510040B19C
:101D10000CE0012070BD6068B0F5827FF4D0E56111
:101D2000F2E784F85050204600F044F8022084F88E
:101D300051002068016821F040010160A0882189DC
:101D400000F4827001F404410843A18901F40061A8
:101D50000843217C01F002010843217D01F00101CB
:101D60000843218B01F400710843217F01F0380101
:101D7000084394F8201001F080010843218D01F4FC
:101D80000051084321680860A069042101EA10405D
:101D900094F8241001F0100108432168486020687D
:101DA000C16921F40061C1616565012084F85100B9
:101DB000002070BD70B586B0064614216846FEF757
:101DC000BBFB26493068884245D12548002501687B
:101DD00041F4805101600068214900F480501439B9
:101DE0000590086840F480000860086800F48000EE
:101DF0000590086840F0010008600868002200F0C3
:101E00000100059005213A20FFF7F8F93A20FFF785
:101E1000E7F9A02000900220CDE9010503200390FE
:101E20000520049069460F48FFF75AF80F4C0E48FA
:101E300020604FF0806060604020C4E9020500012E
:101E4000C4E90405A561E561256220466562FEF7E7
:101E500099FFB464A66306B070BD00000030014075
:101E600044380240000002404064024068070020FD
:101E70002DE9F84F984616468A460446FFF726F99C
:101E8000814694F8510001281ED1BAF1000F73D099
:101E9000002E71D094F85000012815D0012784F845
:101EA0005070032084F8510000256565C4F830A007
:101EB000A686E686A563A587E58765642564A06890
:101EC000B0F5004F03D00CE00220BDE8F88F206889
:101ED000016821F0400101602068016841F48041FF
:101EE000016020680168490603D4016841F040019F
:101EF0000160E068B0F5006F606803D048B3012E60
:101F000027D047E008B1012E1FD1206B216800883F
:101F1000C86006E020688168890709D5216B0988B7
:101F2000C160206B801C2063E08E401EE0860CE0C8
:101F3000FFF7CCF8A0EB0901414503D3B8F1FF3F0F
:101F400003D035E0B8F1000F32D0E08E0028E1D1A7
:101F500023E0206B21680078087306E02068816820
:101F600089070AD5216B09780173206B401C206317
:101F7000E08E401EE0860DE02BE0FFF7A7F8A0EB17
:101F80000901414503D3B8F1FF3F03D010E0B8F198
:101F9000000F0DD0E08E0028E0D14A464146204691
:101FA00001F03AF808B120206065A06830B109E07E
:101FB00084F8517084F85050032086E72068C16887
:101FC0008068009084F8517004F8505F60680028C1
:101FD000F3D0012079E74FF0E0210428086903D00D
:101FE00020F004000861704740F00400FAE710B5E3
:101FF000401EB0F1807F01D3012010BD4FF0E024DE
:1020000060610F21601701F0FEFB0020A061072036
:102010002061002010BD70477047000070B590F837
:102020003C20012A2CD0012480F83C40022280F878
:102030003D2003685A689D6822F070060A683243A2
:102040005A60104B02689A420ED0B2F1804F0BD00A
:102050000D4B9A4208D00D4B9A4205D00C4B9A4238
:1020600002D00C4B9A4204D1496825F080031943F1
:10207000916080F83D40002180F83C10084670BD1A
:10208000022070BD00000140000400400008004034
:10209000000C00400040014010B5040003D094F84B
:1020A0003D0010B107E0012010BD002084F83C0085
:1020B000204600F01EF8022084F83D00211D206813
:1020C00001F09AF8012084F8460084F83E0084F874
:1020D0003F0084F8400084F8410084F8420084F80E
:1020E000430084F8440084F8450084F83D00002053
:1020F00010BD704790F83D10012901D001207047B4
:10210000022180F83D100168CA6842F00102CA60ED
:1021100000680E4988420ED0B0F1804F0BD00C49B8
:10212000884208D00B49884205D00B49884202D02A
:102130000A49884204D1816801F00701062903D0C9
:10214000016841F00101016000207047000001407A
:102150000004004000080040000C00400040014026
:1021600070472DE9F04104460068C66805694FF0E4
:102170000007A90713D5B10711D5F91E0161012088
:102180002077206880698007204602D0FFF7E8FFAB
:1021900004E000F07EF8204600F042F92777680757
:1021A00016D5700714D521686FF00400086102206D
:1021B00020772068806910F4407F204602D0FFF726
:1021C000CFFF04E000F065F8204600F029F92777FA
:1021D000280715D5300713D521686FF0080008616E
:1021E000042020772068C0698007204602D0FFF7CE
:1021F000B7FF04E000F04DF8204600F011F9277712
:10220000E80616D5F00614D521686FF010000861B5
:10221000082020772068C06910F4407F204602D053
:10222000FFF79EFF04E000F034F8204600F0F8F8D5
:102230002777E80708D0F00706D021686FF0010083
:102240000861204600F046F9280608D5300606D574
:1022500021686FF0800008612046FFF7DCFE680609
:1022600008D5700606D521686FF040000861204649
:1022700000F03AF9A8060AD5B00608D521686FF033
:10228000200008612046BDE8F041FFF7C5BEBDE86B
:10229000F081704770B5044690F83C0000260D466A
:1022A00001280FD0012084F83C006AB1042A1DD017
:1022B000082A2FD00C2A3FD00126002084F83C00A9
:1022C000304670BD022070BD206800F0F5FF206828
:1022D000816941F0080181612068816921F0040170
:1022E0008161206881692A69114311E0206801F049
:1022F0000BF82068816941F400618161206881697F
:1023000021F480618161206881692A6941EA0221A2
:102310008161D2E7206801F023F82068C16941F0AB
:102320000801C1612068C16921F00401C161206810
:10233000C1692A69114311E0206801F03DF8206865
:10234000C16941F40061C1612068C16921F4806103
:10235000C1612068C1692A6941EA0221C161ACE713
:1023600010B5040003D094F83D0010B107E001203F
:1023700010BD002084F83C00204600F01FF8022029
:1023800084F83D00211D206800F036FF012084F80C
:10239000460084F83E0084F83F0084F8400084F84A
:1023A000410084F8420084F8430084F8440084F833
:1023B000450084F83D00002010BD000010B5006805
:1023C000144986B0884222D113480024016841F0A4
:1023D00002010160006800F0020005900E4810380C
:1023E000016841F0020101600068142100F0020060
:1023F00005906846FEF7A0F8012000900220CDE984
:102400000104CDE9034069460448FEF769FD06B0C2
:1024100010BD0000000400404038024000040240AB
:102420007047000010B50446022249B104290ED0BD
:10243000082913D094F84100012816D0012010BDBE
:1024400094F83E000128F9D184F83E200FE094F87A
:102450003F000128F2D184F83F2008E094F84000C2
:102460000128EBD184F8402001E084F841200122CA
:10247000206800F013FF12492068884203D1426CA3
:1024800042F400424264206888420ED0B0F1804F8E
:102490000BD00C49884208D00B49884205D00B4923
:1024A000884202D00A49884204D1816801F00701BC
:1024B000062903D0016841F001010160002010BD30
:1024C000000001400004004000080040000C0040F3
:1024D0000040014000680349884201D1FEF7FCBD7D
:1024E00070470000000001407047704710B5044677
:1024F0000068406994F84110C0F3C010212911D13F
:1025000080B12068143050E8001F21F0800140E8BD
:102510000012002AF5D1A06B08B1FEF707FB204698
:1025200001F012F82068406994F84210C0F380105E
:10253000222911D180B12068143050E8001F21F009
:10254000400140E80012002AF5D1E06B08B1FEF727
:10255000EDFA204600F0D1FF002010BD70470000CA
:10256000F8B5016804460868CA684B6910F00F0F97
:102570004FF0000559D003F0010602F4907737437D
:1025800065D0C10705D0D10503D5616C41F00101CB
:102590006164410705D5D90703D0616C41F00201A0
:1025A0006164810705D5D90703D0616C41F004014E
:1025B0006164010707D502F02001314303D0616C4B
:1025C00041F008016164616C00293AD0800604D5AD
:1025D000900602D5204600F0C5FF20684069616C76
:1025E000C0F38010090700D460B3204600F085FFD7
:1025F00020684069400621D52068143050E8001F4B
:1026000021F0400140E80012002AF5D1E06BA8B1AA
:102610006E490165E06BFEF7D2FA002811D0E06B3D
:10262000016D01B0BDE8F040084783060FD5930661
:102630000DD52046BDE8F84000F094BF2046FFF7D6
:102640008DFFF8BD2046FFF789FF6564F8BD266B56
:102650002023012E7DD1C6067BD5D60679D5086804
:102660004868009048694FF00206400641D5E16B8A
:10267000086840680004000CE8D0A28D8242E5D9C9
:10268000E085C869B0F5807F2DD020680C3050E817
:10269000001F21F4807140E80012002AF5D1206863
:1026A000143050E8001F21F0010140E80012002A18
:1026B000F5D12068143050E8001F21F0400140E8B7
:1026C0000012002AF5D184F84230256320680C30CE
:1026D00050E8001F21F0100140E80012002AF5D157
:1026E000E06BFEF723FA6663A08DE18D401A81B29C
:1026F0002AE0A08DE18D401A81B2E08D0028A5D09E
:102700000029A3D022680C3252E8000F20F4907008
:1027100042E80007002FF5D12068143050E8002F60
:1027200022F0010240E80027002FF5D184F8423062
:10273000256320680C3050E8002F22F0100240E89A
:102740000023002BF5D166632046FFF7CEFEF8BDCF
:10275000FFE705062BD5150629D594F84100212859
:10276000F5D1A068B0F5805F01D12069B0B1206AD1
:10277000411C2162216800784860E08C401E000402
:10278000000CE084E3D12068C16821F08001C160C1
:102790002068C16841F04001C160D8E7206A008824
:1027A000C0F308004860206A801C2062E5E740060C
:1027B000CDD55006CBD5CA68204622F04002CA606B
:1027C00084F8413000F0CAF8C1E70000FD3300088A
:1027D00070B5040004D094F84100002510B106E063
:1027E000012070BD84F84050204600F023F82420DA
:1027F00084F841002068C16821F40051C16020467E
:1028000000F012FF2068016921F490410161206805
:10281000416921F02A0141612068C16841F40051F9
:10282000C1606564202084F8410084F8420065633B
:10283000002070BD2DE9F04186B00646142168469F
:10284000FDF77AFE3849306888426AD1374800245B
:10285000016841F010010160006800F0100005906F
:1028600032481438016841F480010160016801F4C4
:1028700080010591016841F00101016000680022BA
:1028800000F00100059005214420FEF7B7FC44202C
:10289000FEF7A6FC002205214620FEF7AFFC4620ED
:1028A000FEF79EFC4FF4C06000900220CDE90104C9
:1028B000032003900720049069461D48FEF710FB93
:1028C0001D4D1C484FF000672860C5E901744FF4A6
:1028D0008068C5E903486C61AC61EC612C622846F4
:1028E0006C62FEF74FFAF5631248AE636035303024
:1028F000E5E802074020A5E811010F4845F8144912
:102900006030AC61EC612C626C62FEF73BFAB5633F
:10291000002205212520AE63FEF770FC2520FEF77E
:102920005FFC06B0BDE8F081001001404438024071
:1029300000000240886402400806002090F84230FF
:10294000202B01D00220704721B11AB1002303636C
:1029500000F0F0BE01207047704770477047FEE7F7
:102960002DE9F04104461D4616460F462A2000F088
:1029700013FA204600F0F6F9304600F0F3F92B2068
:1029800000F00AFA384600F0EDF9284600F0EAF9BE
:10299000BDE8F0412C2000F0FFB910B514460B46FD
:1029A0000246FFF7DDFF2046BDE8104000F0DAB92F
:1029B0002DE9F04780461F4603F1130083B2164607
:1029C000501E82B20C4601F1140081B24046DDF87F
:1029D0002090FFF7C5FF0AE0454604E0484600F0B6
:1029E000C1F96D1CADB2B542F8D3641CA4B2BC42AF
:1029F000F2D3BDE8F087000030B587B014216846F7
:102A0000FDF79AFD0D48016841F002010160006880
:102A10004FF4607400F0020005900120CDE9004001
:102A20000320074D039069462846FEF759FA012214
:102A300021462846FEF744FB07B030BD303802403F
:102A40000004024010B5FFF7D7FF684C00224FF496
:102A500080712046FEF734FB002280212046FEF7DD
:102A60002FFB642000F0F6FE012280212046FEF7B5
:102A700027FB642000F0EEFE112000F08DF9782095
:102A800000F0E8FE362000F087F9C02000F07AF967
:102A90003A2000F081F9052000F074F9B22000F02E
:102AA0007BF90C2000F06EF90C2000F06BF900208F
:102AB00000F068F9332000F065F9332000F062F986
:102AC000B72000F069F9352000F05CF9BB2000F078
:102AD00063F9192000F056F9C02000F05DF92C20B0
:102AE00000F050F9C22000F057F9012000F04AF937
:102AF000C32000F051F9122000F044F9C42000F086
:102B00004BF9202000F03EF9C62000F045F90F20D7
:102B100000F038F9D02000F03FF9A42000F032F99D
:102B2000A12000F02FF9E02000F036F9D02000F0CD
:102B300029F9042000F026F90D2000F023F91120D6
:102B400000F020F9132000F01DF92B2000F01AF9F5
:102B50003F2000F017F9542000F014F94C2000F049
:102B600011F9182000F00EF90D2000F00BF90B20E0
:102B700000F008F91F2000F005F9232000F002F909
:102B8000E12000F009F9D02000F0FCF8042000F06A
:102B9000F9F80C2000F0F6F8112000F0F3F81320FB
:102BA00000F0F0F82C2000F0EDF83F2000F0EAF8FB
:102BB000442000F0E7F8512000F0E4F82F2000F066
:102BC000E1F81F2000F0DEF81F2000F0DBF82020E5
:102BD00000F0D8F8232000F0D5F8212000F0DCF830
:102BE000BDE81040292000F0D7B8000000040240E2
:102BF00008210148FFF716BC78050020411F5F2916
:102C000009D84FF4967110FB01F06421B0FBF1F08C
:102C100001490968C8637047780500202DE9FF4F16
:102C200081B00446DDF83C9000904FEA59074FF020
:102C30000008780700D0012000EBD70000FB09FB5B
:102C4000203AD0B20390029802994844401E83B2C1
:102C5000E019401E82B22046FFF782FE002553E0B5
:102C6000B9F10C0F2AD0B9F1100F2ED0B9F1180F0D
:102C70002ED0B9F1200F49D12749039801EB8010DC
:102C8000002610F805A0109800284FF0010000FA67
:102C900006F000EA0A0022D020B12046049A0299E8
:102CA000FFF77BFE641C0098A4B2201AB84225D11D
:102CB0000298009C401C80B2029023E003981749C0
:102CC00000EB400001EB8000DAE71549039803E0D0
:102CD0000398144900EB400001EB0010D0E708B165
:102CE000049800E00E9800F03DF808F10100C0B231
:102CF000B0FBF7F1804607FB118050B1761CF6B2AD
:102D0000082EC0D36D1CADB25D45A9D305B0BDE89A
:102D1000F08F4FF00008F5E7AE5700087A3B000847
:102D2000EE3F0008DE4500082DE9FE4F9946DDE93B
:102D30000D6714468A460546DDF830800CE0CDF874
:102D400000804B4651462846CDE90167FFF766FFF4
:102D500005EB560085B2641C2278002AEFD1BDE84D
:102D6000FE8F000008B5010A8DF800108DF80100F3
:102D70000123022269460248FFF77AF808BD0000E5
:102D80001007002001B501231A4669460148FFF7E4
:102D90006FF808BD1007002031B50A4D4FF40074DC
:102DA000002221462846FEF78BF901231A46694680
:102DB0000548FFF75DF8012221462846FEF780F915
:102DC00038BD000000040240100700207FB5002439
:102DD00011480094019402940E49039401604FF449
:102DE0008031C0E901140461047680F820400B4969
:102DF000C0E90A140125C561C46080F8304045610E
:102E0000FDF73AFE0095CDE9015469460248FDF709
:102E100081FD7FBD00200140C80600200100000F99
:102E200030B587B014216846FDF786FB22480024A0
:102E300020490594C0E900147F218160FF21C0E989
:102E4000031444618461FEF71DFE00211A48FEF759
:102E500073FD45F25005A8422AD019208DF80000D4
:102E600014208DF801008DF8024003940122694678
:102E700011480494FEF7C4FE07208DF814001120B9
:102E80008DF8150003208DF8160024208DF817000A
:102E9000012205A90848FEF767FE00224FF4FA61F7
:102EA0000548FEF753FD2A4600210348FEF749FD79
:102EB00007B030BD00280040C80700200E4810B5FC
:102EC0000C4901604FF4827141600021022281604F
:102ED000C0E90312012242615202C0E906210162E7
:102EE000416281620A21C162FEF706FF002800D01C
:102EF000012010BD003001401007002010B58AB03D
:102F0000002407941C2168460894FDF715FB10481F
:102F10000E4901606321C0E901144FF49671C0E9C4
:102F200003148461FFF71CFA079407A90848089462
:102F3000FFF774F86020CDE9000402940822694686
:102F400003480494FFF7A6F90AB010BD000400403E
:102F5000780500200848074901604FF4E1314160DD
:102F6000002181600C22C160C0E904128161C1614D
:102F7000FFF72EBC00100140C0050020FEE7FEE771
:102F8000002102E00A38C0B2491C0A28FAD2090717
:102F900040EA1160704700002DE9F04104460068E6
:102FA0000025C168490618D4C16841F08001C1609C
:102FB000FEF78CF806464FF47A78042707E000BF46
:102FC000FEF784F8801B404501D96777012520680A
:102FD000C068400601D4002DF2D02846BDE8F0813B
:102FE00070B5044600680025C16821F08001C16009
:102FF00020688068800606D42046FEF761FE10B186
:10300000042060770125284670BD00000148FEF7C6
:1030100021BD0000C8070020F8B515460E460B4636
:10302000009204460122022100F02CF8A0B91348B6
:1030300013490068B0FBF1F04FF47A7148430090F7
:103040006068B0F5827F0DD1334600228021204692
:10305000009500F017F870B1606D40F020006065D9
:103060000320F8BD009830B1401E009020688068B1
:10307000C0430006F6D50020F8BD00001000002077
:1030800000366E012DE9F8431E46914688460446F7
:10309000089DFEF71BF8401B351AFEF717F8074688
:1030A00025480068C0F3CB30684338E0701C37D047
:1030B000FEF70CF8C01BA84203D215B1009860B30C
:1030C0002CE02068416821F0E00141606068B0F5C3
:1030D000827F0BD1A068B0F5004F02D0B0F5806FB1
:1030E00004D12068016821F040010160A06AB0F5B8
:1030F000005F09D12068016821F400510160206857
:10310000016841F400510160012084F85100002061
:1031100084F850000320BDE8F8830025401E00908D
:103120002068816838EA010004D000214945BDD1FA
:103130000020F0E70121F9E71000002010B54FF062
:10314000E020006900F08AFC012803D0BDE81040AF
:1031500000F06EBC10BD000030B593B03021684661
:10316000FDF7EAF914210CA8FDF7E6F91948002447
:10317000016841F080510160006800F080501190BA
:103180001548016841F4404101600068022500F4DF
:1031900040401190062000900120029003901020E2
:1031A000049006950820CDE907406420CDE9090583
:1031B00004200B906846FEF709FA0F20CDE90C05B4
:1031C000E802CDE90E4003210CA81094FEF7F2F8B6
:1031D00013B030BD40380240007000400248016822
:1031E00041F470010160704788ED00E00148FEF78E
:1031F000B8BF00006C000020F0B50268204B214CE5
:103200009F03214D214E984207D0B84205D0A042DD
:1032100003D0A84201D0B04204D122F0700C4A6819
:1032200042EA0C02984210D0B8420ED0A0420CD014
:10323000A8420AD0B04208D0154CA04205D0154C87
:10324000A04202D0144CA04203D122F44074CA68B8
:1032500022434C6922F08002224302608A68C262E3
:103260000A688262984201D10969016301214161C2
:103270000169C90703D0016921F001010161F0BDB5
:10328000000001400004004000080040000C004025
:1032900000400140004401400048014010B501F0E9
:1032A0001F030121046A99408C430462016A9A4019
:1032B0001143016210BD000030B5036A026A22F0BA
:1032C000010202624268846924F073050C682C4391
:1032D00023F002058B682B430A4DA8420BD123F043
:1032E0000805CB6822F440722B434D6923F0040398
:1032F00015438A692A4342608461496841630362D5
:1033000030BD00000000014030B5026A036A23F0BE
:1033100010030362436884690D6824F4E64444EAB8
:1033200005248D6822F0200242EA05120B4DA842C6
:103330000ED1CD6822F0800242EA05124D6923F4D5
:10334000406343EA85038D6922F0400243EA850326
:103350004360846149688163026230BD00000140BE
:1033600030B5036A026A22F4807202624268C4695C
:1033700023F4007324F073050C682C438D6843EA32
:1033800005230C4DA8420ED1CD6823F4006343EA17
:1033900005234D6922F4405242EA05128D6923F457
:1033A000806342EA05124260C4614968C1630362F6
:1033B00030BD00000000014030B5046A026A22F40A
:1033C000805202624268C3690D6823F4E64343EA0F
:1033D00005238D6824F4005444EA0534064DA842C0
:1033E00004D14D6922F4804242EA85124260C361F1
:1033F00049680164046230BD0000014010B5806B73
:103400000021C185C184FFF7A9F810BD70B5846B98
:103410002068406994F84110C0F3C01000252129AC
:1034200004D118B1E584204600F08EF82068406988
:1034300094F84210C0F38010222904D118B1E58518
:10344000204600F05AF8606C40F01000606420469E
:10345000FFF784F870BD10B50146806B09680968F4
:103460004FF00002C9052ED4C28501680C3151E825
:10347000003F23F4807341E80034002CF5D101684B
:10348000143151E8003F23F0010341E80034002CDF
:10349000F5D10168143151E8003F23F0400341E8C1
:1034A0000034002CF5D1202180F84210016B012955
:1034B00009D101680C3151E8003F23F0100341E8C5
:1034C0000034002CF5D14263016B012902D0FFF7D3
:1034D00043FA10BD818DFFF708F810BD10B5806B61
:1034E00001214163016B012902D0FFF736FA10BDBB
:1034F000818D4908FEF7F9FF10BD01680C3151E8D4
:10350000002F22F4907241E80023002BF5D10168CE
:10351000143151E8002F22F0010241E80023002B72
:10352000F5D1016B012909D101680C3151E8002F57
:1035300022F0100241E80023002BF5D1202180F871
:10354000421000210163704701680C3151E8002FDF
:1035500022F0C00241E80023002BF5D1202180F8A1
:103560004110704708B590F84210222901D002207E
:1035700008BD82684FF480539A4201D1016921B19C
:10358000816A9A421BD04AB10AE00268816A526895
:10359000C2F308020A80816A891C08E0026972B1DC
:1035A0000268526802F07F020A70816A491C8162D7
:1035B000C18D491E0904090CC18503D01BE00268B6
:1035C0005268F1E70168CA6822F02002CA60016807
:1035D000CA6822F48072CA6001684A6922F0010256
:1035E0004A61202180F8421000214163026B012AC8
:1035F00003D0FFF7B1F9002008BD016301680C3169
:1036000051E8002F22F0100241E80023002BF5D1F1
:1036100001680A68D20602D50A6849680091818D5E
:10362000FEF763FFE7E7000070B504460068016934
:10363000E26821F44051114301612169A068E26907
:1036400008436169114308432168CA6849F20C6361
:103650009A430243CA6020684169A26921F440711B
:103660001143416131492068884202D03049884283
:1036700002D1FDF769FF01E0FDF756FFE269002383
:10368000192164253226B2F5004F626828D0A0FBCC
:103690000101930F9200FCF753FE0146B0FBF5F0D9
:1036A0006FF01802504301EB800006EB0010B0FBF6
:1036B000F5F000F0F002B1FBF5F002EB0012B1FB07
:1036C000F5F06FF01803584301EB800006EB001093
:1036D000B0FBF5F000F00F0021681044886070BD69
:1036E000A0FB010192185B41FCF72AFE0146B0FBEA
:1036F000F5F00201B1FBF5F06FF01803584301EB50
:10370000800006EBC000B0FBF5F000F0F80002EB23
:103710004002B1FBF5F0584301EB800006EBC0001E
:10372000B0FBF5F000F00700D6E700000010014004
:103730000014014038B5816204468285002013469A
:103740006064222284F84220E56B1B4AEA63E56B41
:103750001A4A2A64E56B1A4AEA64E26B10650A4663
:103760002168E06B091DFDF777FB20680168406860
:103770000090206948B120680C3050E8001F41F4E7
:10378000807140E80012002AF5D12068143050E81A
:10379000001F41F0010140E80012002AF5D1206825
:1037A000143050E8001F41F0400140E80012002AA8
:1037B000F5D1002038BD000057340008DD34000882
:1037C0000D3400080C4810B500680168C943C906EB
:1037D0000DD40A4A012111706FF0100101600648F2
:1037E000FEF784FE192206490348FFF7A7F8BDE853
:1037F00010400148FEF7B4BEC005002000000020C4
:1038000050000020FEE70907090E002804DB00F144
:10381000E02080F80014704700F00F0000F1E02075
:1038200080F8141D7047000010B50420FEF7D3FB8C
:1038300006484FF47A710078B1FBF0F0044909684A
:10384000BDE81040B1FBF0F0FEF7D1BB0400002052
:103850001000002070B5054600244FF47A7603E08E
:10386000304600F004F8641CAC42F9D370BD70B56A
:103870004FF0E0240022656964214843A169A369EF
:103880008B42FCD002D2A1EB030102E0A5EB0306C0
:1038900031440A4419468242F1D370BD88B02A48A7
:1038A00000240460FDF720FCFFF756FC62B6FFF72A
:1038B0008DFAFFF7B5FAFFF721FBFFF74BFBFFF798
:1038C000B3FFFFF7FBFA00B1FEE718254FF48C7841
:1038D0004FF6FF7601274FF47A7900BFFFF788F99A
:1038E000FFF7B0F800214346F02208460094FFF7A6
:1038F0005FF80A20FFF7AEFF3220FFF77FF9CDE92E
:103900000045334611A28C2148200294FFF70CFA9F
:1039100001231A4610A103A80097FCF789FDCDE901
:103920000045334603AABC2122200294FFF7FCF98C
:103930004846FFF78FFFBD23F0227421002000943A
:10394000FFF736F8CAE7000008ED00E057656C6342
:103950006F6D6521000000004F562D57617463683C
:10396000205625642E25642E256400000648416BF0
:10397000096829B1416BC968C968496881627047A3
:103980004FF0FF31FAE7000014000020D0E90132C7
:1039900001699A60D0E901235A604A68824201D1E4
:1039A00082684A60002202610868401E0860086858
:1039B0007047704742684A6093688B6093685960AB
:1039C000916008610168491C01607047164810B594
:1039D000016B11B10121C16110BD0021C1610169FB
:1039E000124A01E0B9B1491E01EB810352F82330BC
:1039F000002BF7D001EB810302EB830202F10804F4
:103A000053685B685360A34201D15B685360DA6816
:103A10000260016110BD502080F31188BFF34F8F09
:103A2000BFF36F8FFEE7000014000020B4000020F9
:103A300010B5502080F31188BFF34F8FBFF36F8F05
:103A400000F01AF818B104494FF0805008600020C7
:103A500080F3118810BD000004ED00E005484169C5
:103A600019B1006B18B10020704701207047022087
:103A700070470000140000202DE9F041324C00276F
:103A8000206B38B1A069401CA061FFF792FF384657
:103A9000BDE8F081E668761CE66013D1606B0068D3
:103AA00038B1502080F31188BFF34F8FBFF36F8F71
:103AB000FEE7606BA16B6163A063206A401C20621B
:103AC000FFF754FFA06ADFF88480864209D3606B59
:103AD000006890B1606BC068C568686886420FD2A4
:103AE000A0622068C06A00EB800158F8210001281C
:103AF00000D90127A069F8B120E04FF0FF30EFE7CF
:103B0000281DFFF743FFA86A18B105F11800FFF759
:103B10003DFFE86A2169884200D9206100EB8001FD
:103B200008EB8100291DFFF745FFE86A2168C96A93
:103B30008842CCD30127CAE7FFF73BFFE0690028A2
:103B4000A5D00127A3E7000014000020B400002046
:103B50004FF04070E1EE100A7047000610160006A4
:103B60001016000000000000000001020304060718
:103B7000080900000000010203040000000000002A
:103B8000000000000000000004040404040000041D
:103B9000000014140A0000000000000000000000F3
:103BA0000A0A1F0A0A1F0A0A000000040E15050669
:103BB0000C14150E0400000012150D152E2C2A12DF
:103BC00000000000040A0A3615152916000002023A
:103BD00001000000000000000000100808040404B8
:103BE0000404080810000204040808080808040473
:103BF000020000000004150E0E1504000000000075
:103C00000008083E08080000000000000000000056
:103C100000000202010000000000003F0000000060
:103C20000000000000000000000000020000002072
:103C30001010080804040202010000000E11111106
:103C40001111110E00000000040604040404040E07
:103C5000000000000E1111080402011F0000000006
:103C60000E11100C1010110E00000000080C0C0AB0
:103C7000091F081C000000001F01010F1110110E88
:103C8000000000000C12010D1311110E00000000C5
:103C90001E10080804040404000000000E11110E98
:103CA0001111110E000000000E1111191610090655
:103CB00000000000000004000000000400000000FC
:103CC00000000004000000040400000010080402CA
:103CD000020408100000000000003F003F00000048
:103CE0000000000002040810100804020000000098
:103CF0000E11110804040004000000001C22292DEC
:103D00002D1D221C0000000004040C0A0A1E1233A0
:103D1000000000000F12120E1212120F000000001D
:103D20001E1101010101110E000000000F121212FC
:103D30001212120F000000001F120A0E0A02121FB8
:103D4000000000001F120A0E0A0202070000000015
:103D50001C1201013911120C000000003312121E56
:103D600012121233000000001F0404040404041F94
:103D7000000000003E0808080808080809070000BD
:103D800037120A060A121237000000000702020268
:103D90000202223F000000003B1B1B1B15151535BE
:103DA000000000003B1216161A1A1217000000003D
:103DB0000E1111111111110E000000000F12120E40
:103DC00002020207000000000E1111111117190E56
:103DD000180000000F12120E0A1212370000000025
:103DE0001E1101060810110F000000001F15040429
:103DF0000404040E00000000331212121212120CFE
:103E0000000000003312120A0A0C04040000000033
:103E1000151515150E0A0A0A000000001B0A0A04EF
:103E2000040A0A1B000000001B0A0A0A0404040E0C
:103E3000000000001F0908040402121F00001C04F7
:103E400004040404040404041C0000020204040426
:103E50000808081010000E080808080808080808D4
:103E60000E00040A00000000000000000000000036
:103E70000000000000000000003F020400000000FD
:103E800000000000000000000000000C121C123CAA
:103E9000000000030202020E1212120E00000000C7
:103EA0000000001C1202120C000000181010101C60
:103EB0001212123C000000000000000C121E021C36
:103EC000000000182404041E0404041E0000000066
:103ED0000000003C120C021C221C00030202020E15
:103EE0001212123700000004040000060404040E3D
:103EF000000000080800000C080808080807000374
:103F00000202021A0A060A1300000007040404044D
:103F10000404041F000000000000000F1515151513
:103F2000000000000000000F121212370000000015
:103F30000000000C1212120C000000000000000F24
:103F40001212120E020700000000001C1212121CB6
:103F5000103800000000001B0602020700000000ED
:103F60000000001E020C101E000000000004041ED1
:103F70000404041C000000000000001B1212123C8C
:103F8000000000000000001B0A0A040400000000FA
:103F900000000015150E0A0A000000000000001BBA
:103FA0000A040A1B000000000000003312120C0873
:103FB000040300000000001E0804041E000018088E
:103FC0000808080C08080808180008080808080865
:103FD0000808080808080604040404080404040483
:103FE00006001609000000000000000000000000AC
:103FF00000000000000000000000000000000000C1
:104000000008080808080808000018180000004800
:104010006C241200000000000000000000000000FE
:10402000002424247F1212127F12121200000000BA
:10403000081C2A2A0A0C1828282A2A1C080800000A
:104040000022251515152A5854545422000000004A
:10405000000C1212120A76252911916E000000063A
:104060000604030000000000000000000000004003
:10407000201010080808080808101020400000024E
:1040800004080810101010101008080402000000A6
:10409000000008086B1C1C6B0808000000000000F2
:1040A0000000080808087F08080808000000000051
:1040B00000000000000000000000060604030000ED
:1040C000000000000000FE000000000000000000F2
:1040D00000000000000000000000060600000000D4
:1040E0008040402020101008080404020200000054
:1040F000001824424242424242422418000000007A
:1041000000080E08080808080808083E000000001B
:10411000003C4242422020100804427E0000000081
:10412000003C4242201820404042221C0000000077
:1041300000203028242422227E2020780000000045
:10414000007E0202021A26404042221C00000000AB
:1041500000382402021A26424242241800000000BD
:10416000007E22221010080808080808000000003D
:10417000003C4242422418244242423C00000000DB
:1041800000182442424264584040241C00000000B1
:1041900000000000181800000000181800000000BF
:1041A00000000000000800000000000808040000F3
:1041B0000040201008040204081020400000000005
:1041C000000000007F0000007F00000000000000F1
:1041D0000002040810204020100804020000000023
:1041E000003C424246402010100018180000000019
:1041F000001C225A555555552D42221C0000000026
:10420000000808181414243C224242E70000000071
:10421000001F2222221E22424242221F00000000D2
:10422000007C4242010101010142221C0000000009
:10423000001F2242424242424242221F000000002E
:10424000003F4212121E12120242423F00000000C2
:10425000003F4212121E121202020207000000006A
:10426000003C2222010101712122221C00000000D9
:1042700000E7424242427E42424242E700000000E2
:10428000003E0808080808080808083E000000006A
:10429000007C10101010101010101010110F0000E2
:1042A000007722120A0E0A12122222770000000062
:1042B00000070202020202020202427F0000000026
:1042C0000077363636362A2A2A2A2A6B0000000062
:1042D00000E346464A4A52525262624700000000DA
:1042E000001C2241414141414141221C000000008B
:1042F000003F424242423E0202020207000000002A
:10430000001C2241414141414D53321C60000000DC
:10431000003F4242423E1212222242C700000000E9
:10432000007C4242020418204042423E000000004D
:10433000007F4908080808080808081C0000000059
:1043400000E74242424242424242423C00000000F8
:1043500000E7424222242414141808080000000038
:10436000006B494949495555362222220000000078
:1043700000E7422424181818242442E70000000013
:1043800000772222141408080808081C0000000006
:10439000007E2120101008040442423F00000078F3
:1043A0000808080808080808080808087800000035
:1043B0000202040408080810102020204040001EBB
:1043C0001010101010101010101010101E000038D7
:1043D0004400000000000000000000000000000099
:1043E00000000000000000000000000000FF0006C8
:1043F00008000000000000000000000000000000B5
:1044000000000000003C4278444242FC00000000F2
:1044100000030202021A26424242261A000000004D
:10442000000000000038440202024438000000008E
:104430000060404040784442424264D8000000009E
:1044400000000000003C427E0202423C00000000EE
:1044500000F08808087E08080808083E00000000F0
:1044600000000000007C22221C023C42423C000072
:1044700000030202023A4642424242E700000000C4
:10448000000C0C00000E08080808083E00000000A0
:10449000003030000038202020202020221E000084
:1044A000000302020272120A1612227700000000B4
:1044B000000E0808080808080808083E0000000068
:1044C00000000000007F9292929292B700000000DC
:1044D00000000000003B4642424242E7000000006C
:1044E00000000000003C42424242423C000000000A
:1044F00000000000001B26424242221E020700006C
:1045000000000000007844424242447840E000004D
:104510000000000000774C040404041F00000000A9
:1045200000000000007C42023C40423E00000000CF
:1045300000000008083E08080808083000000000D5
:104540000000000000634242424262DC00000000C2
:104550000000000000E742242414080800000000C6
:104560000000000000EB49495555222200000000E0
:1045700000000000007624181818246E00000000C7
:104580000000000000E74224241418080807000077
:1045900000000000007E22100808447E000000C0D9
:1045A000202020202010202020202020C0001010BB
:1045B0001010101010101010101010101010000615
:1045C00008080808081008080808080806000C323F
:1045D000C200000000000000000000000000000019
:1045E00000000000000000000000000000000000CB
:1045F00000000000000000000000000000000000BB
:1046000000000000000000000000000000000000AA
:1046100000000000000060006000600060006000BA
:10462000600060004000200020002000000000002A
:10463000000060006000600000000000000000005A
:104640000000600660063003980188004400000006
:10465000000000000000000000000000000000005A
:10466000000000000000000000000000000000004A
:104670000000000000001002100210021002FE07ED
:10468000FE0708020801080108010801FE07FE07ED
:104690000401040104010401000000000000000006
:1046A0000000000040004000F00158034C03CC0320
:1046B0004C0058007000E000C001C00140034C03F2
:1046C0005C034C034801F000400040000000000083
:1046D0000000000000000E010A019100910091000D
:1046E000510051003A00AE03A002500450044804A7
:1046F0004804480484028403000000000000000015
:1047000000000000000038006C006C006C006C00C1
:104710006C002C0098071C011A013301330163015E
:10472000E300C308C6093C070000000000000000C9
:1047300000000C001C001000100008000400000025
:104740000000000000000000000000000000000069
:104750000000000000000000000000000000000059
:1047600000000004000200018000800040004000C2
:104770002000200020002000200020002000400019
:1047800040008000800000010002000400000000E2
:1047900000000200040008001000100020002000AB
:1047A0004000400040004000400040004000200029
:1047B00020001000100008000400020000000000AB
:1047C000000000000000000000004000C0004000A9
:1047D000460C4E0FD001F0015E0F460C4000400029
:1047E0004000000000000000000000000000000089
:1047F0000000000000000000000000004000400039
:10480000400040004000FE0F4000400040004000DB
:104810004000000000000000000000000000000058
:104820000000000000000000000000000000000088
:104830000000000000000000000000000000000078
:1048400000000C001C001000100008000400000014
:104850000000000000000000000000000000000058
:10486000000000000000FE07000000000000000043
:104870000000000000000000000000000000000038
:104880000000000000000000000000000000000028
:104890000000000000000000000000000000000018
:1048A00000001C001C001C000000000000000000B4
:1048B0000000000400060002000300010001800067
:1048C0008000400040006000200020001000100028
:1048D000080008000C0004000600020000000000B0
:1048E0000000000000000000F00098010C030C0321
:1048F0000606060606060606060606060606060658
:104900000C030C039801F000000000000000000000
:10491000000000000000000040007C00600060001B
:104920006000600060006000600060006000600087
:10493000600060006000FC03000000000000000058
:104940000000000000000000F800840102030603DC
:104950000603000300018001C00060002000100079
:10496000080204020602FE0300000000000000002E
:1049700000000000000000007800C60086018601EB
:1049800080018001C000700080010001000300036D
:10499000060306038601F800000000000000000086
:1049A000000000000000000080018001C001A001A3
:1049B000A00190018801880184018201FE0F80011D
:1049C000800180018001E00700000000000000007D
:1049D0000000000000000000FC03040004000400CC
:1049E00004000400F4008C01040300030003060328
:1049F000060382018401F8000000000000000000AE
:104A00000000000000000000E00118030C030C008F
:104A100004000600E60116030E0606060606060654
:104A200004060C021803F000000000000000000063
:104A30000000000000000000F8070C06040204015A
:104A40000001000180008000400040004000600044
:104A500060006000600060000000000000000000D6
:104A60000000000000000000F8010C030606060626
:104A700006060C021C03F000C8010C03060606061D
:104A8000060606060C03F00100000000000000000E
:104A90000000000000000000F0000C010C03060202
:104AA00006060606060606078C06780600060003BC
:104AB00000030C018C0178000000000000000000E1
:104AC00000000000000000000000000000000000E6
:104AD0000000E000E000E000000000000000000036
:104AE0000000E000E000E000000000000000000026
:104AF00000000000000000000000000000000000B6
:104B000000006000600000000000000000000000E5
:104B10000000000060006000400020002000000055
:104B200000000000000000040002000180004000BE
:104B300020001000080004000800100020004000C1
:104B400080000001000200040000000000000000DE
:104B50000000000000000000000000000000000055
:104B60000000FE07000000000000FE07000000003B
:104B70000000000000000000000000000000000035
:104B800000000000000004000800100020004000A9
:104B900080000001000200040002000180004000CB
:104BA00020001000080004000000000000000000C9
:104BB0000000000000000000E0031806040C040CD4
:104BC0000C0C0C0C0007800140004000400000006D
:104BD0000000E000E000E000000000000000000035
:104BE000000000000000E00018030C02CC05640582
:104BF0006605A605B604B604B604B604B602E4011A
:104C00000C040C021803F00000000000000000007B
:104C10000000000000000000600060005000D000B4
:104C200090009000880088010801F8010403040343
:104C30000402020202060F0F000000000000000044
:104C40000000000000000000FE008C030C030C03B9
:104C50000C030C038C01FC000C030C020C060C066C
:104C60000C060C060C03FE01000000000000000012
:104C70000000000000000000E00318030C060C0414
:104C800004040600060006000600060006000604EE
:104C90000C040C021803F0000000000000000000EB
:104CA00000000000000000007F008C010C030C03DA
:104CB0000C060C060C060C060C060C060C060C0664
:104CC0000C030C038C017F000000000000000000BA
:104CD0000000000000000000FF03060306040604B5
:104CE000060086008600FE0086008600860006001C
:104CF000060406040602FF03000000000000000096
:104D00000000000000000000FF0306030604060484
:104D1000060086008600FE008600860086000600EB
:104D20000600060006001F00000000000000000052
:104D30000000000000000000F00018010C020C024E
:104D400004020600060006000600C60F060306035E
:104D50000C030C031803F00000000000000000002A
:104D600000000000000000000F0F06060606060601
:104D7000060606060606FE070606060606060606DA
:104D80000606060606060F0F0000000000000000E1
:104D90000000000000000000FC03600060006000F4
:104DA0006000600060006000600060006000600003
:104DB000600060006000FC030000000000000000D4
:104DC0000000000000000000F807C000C000C000A4
:104DD000C000C000C000C000C000C000C000C000D3
:104DE000C000C000C000C000C60066003C0000005B
:104DF0000000000000000000CF038601C60046004E
:104E00002600160036002E006E004600C600860002
:104E10008601060106038F07000000000000000065
:104E200000000000000000001F0006000600060051
:104E30000600060006000600060006000600060042
:104E4000060406040602FF03000000000000000044
:104E500000000000000000000707860386038E03A1
:104E60008E034E034E034A035A035A033A03320396
:104E70003203320312038707000000000000000025
:104E800000000000000000008E0F0C021C021C023B
:104E900034023402640264024402C40284028403C1
:104EA0008403040304031F0200000000000000004C
:104EB0000000000000000000F00098010C030C024C
:104EC0000606060606060606060606060606060682
:104ED0000C020C039801F00000000000000000002C
:104EE0000000000000000000FF00060306060606A2
:104EF0000606060606068603FE00060006000600F5
:104F00000600060006001F00000000000000000070
:104F10000000000000000000F00098010C030C02EB
:104F200006060606060606060606060606067606B1
:104F30004C02CC039801F000800700030000000041
:104F40000000000000000000FF0106030606060640
:104F5000060606060603FE004600C6008600860119
:104F60000603060306060F0E000000000000000006
:104F70000000000000000000F8020C030602060218
:104F800006000E003C00F800E00380030007020664
:104F9000020606060C03F0010000000000000000FD
:104FA0000000000000000000FE07620461086108C4
:104FB00060006000600060006000600060006000F1
:104FC000600060006000F8010000000000000000C8
:104FD00000000000000000001E070C020C020C0282
:104FE0000C020C020C020C020C020C020C020C0251
:104FF0000C020C021801F00000000000000000008C
:1050000000000000000000000F0706020401040178
:105010000C010C0188008800980098005000500096
:1050200070003000200020000000000000000000A0
:105030000000000000000000F70E62044204460475
:10504000460464026402E402E4029C029C019801AA
:10505000980188018800880000000000000000001E
:1050600000000000000000009E070C01080118016C
:105070009000B0006000200060006000D000900050
:105080008801080104038E070000000000000000F2
:1050900000000000000000000F0F060404020C02D4
:1050A00008011801B800B0007000600060006000E6
:1050B000600060006000F8010000000000000000D7
:1050C0000000000000000000FC070C0206030201C3
:1050D00080018000400040002000200010001800E7
:1050E00008040C040402FE0300000000000000009D
:1050F0000000E0032000200020002000200020000D
:10510000200020002000200020002000200020009F
:1051100020002000200020002000E003000000000C
:105120000000000000000400040008000800100057
:10513000100010002000200040004000C00080004F
:1051400080000001000100020002000200040000D3
:1051500000007C0040004000400040004000400053
:10516000400040004000400040004000400040003F
:10517000400040004000400040007C000000000073
:105180006000900008010000000000000000000026
:10519000000000000000000000000000000000000F
:1051A00000000000000000000000000000000000FF
:1051B00000000000000000000000000000000000EF
:1051C00000000000000000000000000000000000DF
:1051D000000000000000000000000000FF0F0000C1
:1051E0000000180060000000000000000000000047
:1051F00000000000000000000000000000000000AF
:10520000000000000000000000000000000000009E
:10521000000000000000000000000000000000008E
:105220000000F0010C030C030003E0031C030E0359
:10523000060306038E0B7C0E000000000000000039
:1052400000000000000008000E000C000C000C0024
:105250000C00CC013C031C060C060C060C060C06CC
:105260000C060C021C03E40100000000000000001A
:10527000000000000000000000000000000000002E
:105280000000F0008C018C0186010600060006007B
:1052900006020C020C01F0000000000000000000FB
:1052A0000000000000000002C00300030003000330
:1052B000000378038C030C030603060306030603AE
:1052C000060304038C0778010000000000000000C2
:1052D00000000000000000000000000000000000CE
:1052E0000000E001180308020C060C06FC070C0085
:1052F0000C0018041802E00100000000000000008B
:105300000000000000000000C0036006300630000E
:105310003000FE013000300030003000300030003E
:10532000300030003000FC010000000000000000F0
:10533000000000000000000000000000000000006D
:105340000000F007D8068C018C018C019801F80050
:105350000C00FC00CC03060306038E03F8000000DB
:1053600000000000000008000E000C000C000C0003
:105370000C00EC011C030C030C030C030C030C03CA
:105380000C030C030C039E0700000000000000004B
:10539000000000000000000060006000000000004D
:1053A00040007C0060006000600060006000600001
:1053B000600060006000FC030000000000000000CE
:1053C0000000000000000000C001C001000000005B
:1053D0000001F001800180018001800180018001D5
:1053E00080018001800180018001CC007C000000F0
:1053F00000000000000008000E000C000C000C0073
:105400000C008C038C008C004C006C005C008C0049
:105410008C010C010C039E0700000000000000003E
:1054200000000000000040007C00600060006000A0
:10543000600060006000600060006000600060006C
:10544000600060006000FC0300000000000000003D
:10545000000000000000000000000000000000004C
:1054600000003707EE0666066606660666066606EE
:10547000660666066606FF0F0000000000000000DA
:10548000000000000000000000000000000000001C
:105490000000EE011C030C030C030C030C030C03B3
:1054A0000C030C030C039E0700000000000000002A
:1054B00000000000000000000000000000000000EC
:1054C0000000F00098010C03060606060606060614
:1054D00006060C030C03F0000000000000000000B2
:1054E00000000000000000000000000000000000BC
:1054F0000000EE011C030C060C060C060C060C0644
:105500000C060C031C03EC010C000C003E00000018
:10551000000000000000000000000000000000008B
:10552000000078028C030C0306030603060306033F
:10553000060304038C03780300030003C007000084
:10554000000000000000000000000000000000005B
:1055500000009F03580638061800180018001800AD
:10556000180018001800FF000000000000000000F4
:10557000000000000000000000000000000000002B
:105580000000F0031C030C020C023800F000C00302
:10559000040304038C03FC01000000000000000071
:1055A000000000000000000000002000200030008B
:1055B0003000FE013000300030003000300030009C
:1055C000300030023002E001000000000000000066
:1055D00000000000000000000000000000000000CB
:1055E00008028E030C030C030C030C030C030C03C6
:1055F0000C030C039C077801000000000000000071
:10560000000000000000000000000000000000009A
:1056100000001E070C020801080118019000B000EC
:10562000B0006000600020000000000000000000EA
:10563000000000000000000000000000000000006A
:105640000000F70E6204460464026402EC029C014E
:105650009801980198010800000000000000000077
:10566000000000000000000000000000000000003A
:105670000000BC0718011001B00060006000E000ED
:105680009000080108039E070000000000000000D1
:10569000000000000000000000000000000000000A
:1056A00000009E0708010801080190009000B0006A
:1056B0006000600060002000200024001C0000004A
:1056C00000000000000000000000000000000000DA
:1056D0000000FC018401C400440060002000300090
:1056E000180208020C03FC0100000000000000008A
:1056F00000000003800080008000800080008000A7
:105700008000800040002000400080008000800079
:1057100080008000800080008000000300004000C6
:105720004000400040004000400040004000400079
:105730004000400040004000400040004000400069
:105740004000400040004000400040004000000099
:1057500000000C00100010001000100010001000DD
:105760001000100020004000200010001000100069
:10577000100010001000100010000C0000000000CD
:105780001C002204C204800300000000000000008E
:105790000000000000000000000000000000000009
:1057A00000000000000000000000000000000000F9
:1057B00000000000000000000000000000000000E9
:1057C00000000000000000000000000000000000D9
:1057D00000000000000000000000000000000000C9
:1057E00000000000000000000000000000000000B9
:1057F0000000000000000000C001C001C001C001A5
:10580000C001C001C00180008000800080008000D5
:105810008000800000000000000000008001C00344
:10582000C003800100000000000000000000000034
:1058300000000000E01CE01CF01E700E380718038A
:1058400008018400000000000000000000000000CB
:105850000000000000000000000000000000000048
:105860000000000000000000000000000000000038
:105870000000000000000000000020102010201098
:1058800020102010FE7FFE7F10081008100810085E
:10589000100810081008FE7FFE7F080408040804A2
:1058A00008040804000000000000000000000000E0
:1058B00000000000000000010001C0076019103165
:1058C00018311839183938017001E001C003800718
:1058D000000F001D003900311C311C310C310C113E
:1058E000180DE007000100010001000000000000A9
:1058F000000000000000000000001C1036186308C3
:10590000630C63046304630263026301361D9C3706
:1059100080228063406340632063206330631022F1
:105920001836081C00000000000000000000000005
:1059300000000000000000000000F00098018C0151
:105940008C018C018C018C00CC007800183E1C0866
:105950003608320863046304C304C3038343064365
:105960008E26781C000000000000000000000000EF
:10597000000000001C003C003C0030003000100023
:105980000C00060000000000000000000000000005
:105990000000000000000000000000000000000007
:1059A00000000000000000000000000000000000F7
:1059B000000000000040002000100008000C00045F
:1059C00000060003000300038001800180018001C4
:1059D00080018001800180010003000300030006B4
:1059E0000006000C0008001000200040000000002D
:1059F0000000000002000400080010003000200039
:105A00006000C000C000C0008001800180018001F2
:105A10008001800180018001C000C000C0006000E2
:105A200060003000100008000400020000000000C8
:105A30000000000000000000000000000000000165
:105A40008003800300011C713C79783DC007000190
:105A5000C007783D3C791C71000180038003800100
:105A60000000000000000000000000000000000036
:105A70000000000000000000000000000000000026
:105A80000001000100010001000100010001FC7F94
:105A900000010001000100010001000100010000FF
:105AA00000000000000000000000000000000000F6
:105AB00000000000000000000000000000000000E6
:105AC00000000000000000000000000000000000D6
:105AD00000000000000000000000000000001C00AA
