:020000040800F2
:10000000480E0020F90200081F2C00085F27000896
:100010001D2C000819060008A53400080000000087
:10002000000000000000000000000000390200088D
:10003000E50600080000000095020008DD2D00081C
:10004000130300081303000813030008AD2C000875
:100050001303000813030008130300081303000828
:10006000F906000813030008090700081303000835
:100070001303000813030008130300081303000808
:100080001303000813030008130300080000000016
:100090000000000000000000000000000F07000842
:1000A000130300088D2E0008130300081303000833
:1000B00013030008130300081303000813030008C8
:1000C00013030008130300081303000813030008B8
:1000D0001303000865340008130300080000000043
:1000E000E9060008130300081303000800000000DD
:1000F00000000000000000000000000013030008E2
:100100000000000013030008130300081303000895
:1001100000000000000000000000000000000000DF
:1001200013030008130300081D060008130300084A
:1001300013030008000000000000000000000000A1
:100140000000000000000000000000001303000891
:1001500029060008130300083506000813030008E9
:100160001303000813030008000000000000000053
:10017000000000000000000000000000000000007F
:100180000000000013030008000000000000000051
:10019000130300081303000800F002F800F03CF815
:1001A0000AA090E8000C82448344AAF10107DA45D2
:1001B00001D100F031F8AFF2090EBAE80F0013F0E8
:1001C000010F18BFFB1A43F001031847D835000090
:1001D000F8350000103A24BF78C878C1FAD8520721
:1001E00024BF30C830C144BF04680C6070470000B1
:1001F0000023002400250026103A28BF78C1FBD830
:10020000520728BF30C148BF0B6070471FB503F0CD
:10021000B3FA1FBD10B510BD00F02FF91146FFF75E
:10022000F5FF03F08BF900F04DF903B4FFF7F2FF8F
:1002300003BC00F055F900002C4B19680868B0E8C1
:10024000F04F80F30988BFF36F8F4FF0000080F309
:10025000118870470000000008480068006880F3BB
:1002600008884FF0000080F3148862B661B6BFF3CF
:100270004F8FBFF36F8F00DF00BF00BF08ED00E0BE
:10028000DFF80C00016841F470010160704700BFA5
:1002900088ED00E0EFF30980BFF36F8F134B1A680E
:1002A0001EF0100F08BF20ED108A20E9F04F1060FB
:1002B00009B44FF0500080F31188BFF34F8FBFF3A4
:1002C0006F8F03F097F94FF0000080F3118809BC9D
:1002D00019680868B0E8F04F1EF0100F08BFB0ECC6
:1002E000108A80F30988BFF36F8F704714000020D5
:1002F000EFF3058070470000094880470948004730
:10030000FEE7FEE7FEE7FEE7FEE7FEE7FEE7FEE7C5
:10031000FEE7FEE704480549054A064B7047000022
:100320007D2E00089901000848080020480E002092
:10033000480A0020480A002053EA020C00F06980B5
:100340002DE9F04B4FF00006002B1FBFB3FA83F5E9
:1003500003FA05F424FA05F65E4012BF1643B2FA1A
:1003600082F502FA05F4C5F120051EBF22FA05FC4C
:1003700044EA0C04203556EA044C4FEA144418BFF2
:10038000641C4FF000084FF00009904271EB030C21
:1003900039D3002919BFB1FA81F701FA07F6B0FA8B
:1003A00080F700FA07F6C7F120071EBF20FA07FC06
:1003B00046EA0C062037B6FBF4FCA7EB0507103F16
:1003C00007F01F0BCBF120060CFA0BFB2CFA06F6FC
:1003D00044BFB3460026202FA4BF5E464FF0000B5B
:1003E0005BEA060C08BF4FF0010B19EB0B09ABFBE6
:1003F000027C48EB0608C01B06FB02CC0BFB03CCBF
:1004000071EB0C01C1E70B46024641464846BDE888
:10041000F08B13B54FF000004FF00001AFF30080F8
:10042000BDE81C4070474FF0000200B513469446EB
:100430009646203922BFA0E80C50A0E80C50B1F13C
:100440002001BFF4F7AF090728BFA0E80C5048BF50
:100450000CC05DF804EB890028BF40F8042B08BFEE
:10046000704748BF20F8022B11F0804F18BF00F8EA
:10047000012B7047704770477047754600F02CF8A5
:10048000AE4605006946534620F00700854618B081
:1004900020B5FFF73FFFBDE820404FF000064FF0CA
:1004A00000074FF000084FF0000B21F00701AC46A9
:1004B000ACE8C009ACE8C009ACE8C009ACE8C009C8
:1004C0008D46704710B50446AFF300802046BDE866
:1004D0001040FFF7AABE000000487047E807002060
:1004E00001491820ABBEFEE726000200704700005D
:1004F000464910B54A6822F440324A604A68436867
:100500001A434A6001684A6822F480724A600168AE
:100510004A68036942EA03224A6001684A6822F095
:1005200040724A6001684A6883681A434A600168F9
:100530008A6822F400628A6001688A68C3681A4384
:100540008A60816A6FF07062D14201688A6822F025
:1005500070628A6001688A680CD0836A1A438A6074
:1005600001688A6822F040528A6001688A68C36A1A
:100570001A4301E022F040528A6001688A6822F042
:1005800002028A6001688A68037E42EA43028A6046
:1005900090F82010002901684A680FD042F40062E8
:1005A0004A6001684A6822F460424A6001684A6809
:1005B000174C436A04EB43331A4301E022F4006210
:1005C0004A600168CA6A22F47002CA620168CA6A93
:1005D000838B104C04EB03531A43CA6201688A6888
:1005E00022F400728A6001688A6890F8303042EA2A
:1005F00043228A6001688A6822F480628A60016806
:100600008A68406942EA8020886010BD002301406A
:1006100000E0FFFF0000F0FFFEE70000014800F0EF
:10062000E1B9000068070020014800F0DBB90000D4
:1006300008060020014800F0D5B900006806002037
:1006400001681823CAB2103AB2FBF3F2054B6FF3FC
:100650000901032A9B5CC36500D9091D8165084611
:10066000704700008237000810B5014600208B69F2
:100670008A6A4FF0C07453B1B3F5005F15D072B100
:10068000012A0CD0022A0AD0032A09D104E01AB1A7
:10069000012A06D0022A03D1C96AC90100D5012066
:1006A00010BDC96AA142FAD010BD002AF7D0012AB4
:1006B000F2D0022AF3D0032AF3D010BD30B504687B
:1006C000256825F480252560046863608368402BD5
:1006D000036803D099600068C26030BD9A6000680A
:1006E000C16030BD7047000002490120487000031E
:1006F00000F0EABA000000200249012088700420BE
:1007000000F0E2BA00000020102000F0DDBA202046
:1007100000F0DABA78B50024009490F83C20012A61
:1007200019D0012280F83C200A6807230568092AAD
:1007300013D9EE680A3A02EB420293409E43EE6000
:100740000B788A680A3B03EB43039A400368DD6831
:100750002A43DA6010E0022078BD2E6902EB4202E3
:1007600093409E432E610B788A6803EB43039A40C3
:1007700003681D692A431A614A681F23072A13D296
:1007800005686E6B521E02EB820293409E436E63BD
:100790000A8893B20A79521E02EB820293400268E1
:1007A000556B2B43536327E005680D2A12D22E6B3D
:1007B000D21F02EB820293409E432E630B790A887C
:1007C000DB1F92B203EB83039A4003681D6B2A433D
:1007D0001A6311E0EE6A0D3A02EB820293409E43E7
:1007E000EE620B790A880D3B92B203EB83039A40C9
:1007F0000368DD6A2A43DA621B4B0568194A9D4289
:100800000AD10D68122D07D1556825F400055560F1
:10081000556845F48005556005689D421DD1134D0E
:100820000B68AB4201D0112B17D1536823F480031E
:100830005360536843F4000353600968A9420CD124
:100840000B490C4A0968B1FBF2F101EB8101490047
:1008500000E0491E00910029FBD180F83C400020B7
:1008600078BD00000023014000200140120000106C
:100870001000002040420F0070B504004FF000054A
:1008800003D0206C002610B107E0012070BD204687
:1008900000F01CF8666484F83C60206CC00610D43C
:1008A000206C20F4885040F0020020642046FFF7BE
:1008B0001FFE6664206C20F0020040F001002064FE
:1008C00000E0012584F83C60284670BD10B586B074
:1008D000044614216846FFF7A6FD114920688842A6
:1008E0001CD110480021026842F480720260006846
:1008F00000F4807005900B481438026842F0010241
:100900000260006800F001000590022000900320C2
:10091000CDE901016946044800F0E2F906B010BDD6
:100920000020014044380240000002402DE9F0411F
:100930000446876D00F0CAFA064694F83500002593
:10094000022806D08020606584F834500120BDE87C
:10095000F0812068016821F016010160206841697A
:1009600021F080014161206C08B9A06C20B12068A1
:10097000016821F0080101602068016821F001018F
:1009800001600CE000F0A2FA801B052807D92020A6
:100990006065032084F8350084F83450D7E7206878
:1009A0000068C007EED194F85C103F208840B86022
:1009B000012084F8350084F834500020C7E790F80F
:1009C0003510022903D0802141650120704705219F
:1009D00080F835100068016821F0010101600020F5
:1009E000704700002DE9F84304464FF00009CDF8A8
:1009F000009063484FF41651A56D0068B0FBF1F705
:100A00002E6894F85C10082000FA01F131420FD0F2
:100A100021680A6852070BD50A6822F004020A60AE
:100A200094F85C108840A860606D40F0010060653B
:100A300094F85C104FF0010808FA01F0304208D039
:100A400021684969090604D5A860606D40F002007C
:100A5000606594F85C1004208840304208D021681A
:100A60000968890704D5A860606D40F004006065DE
:100A700094F85C1010208840304218D02168096832
:100A8000090714D5A86020680168490304D50068E7
:100A9000000308D5A16C07E00168C90503D401680B
:100AA00021F008010160216C09B12046884794F8C3
:100AB0005C1020208840304231D021680968C90686
:100AC0002DD5A86094F8350005282068016806D067
:100AD000490347D5006800031DD4616C1CE021F078
:100AE000160101602068416921F080014161206C9C
:100AF00008B9A06C20B12068016821F008010160EC
:100B000094F85C103F208840A86084F8358084F811
:100B10003490216D1FE0E16B09B120468847606D7C
:100B200000282BD0606DC00714D0052084F8350054
:100B30002068016821F0010101600098401C0090CC
:100B4000B84203D820680068C007F6D184F8358021
:100B500084F83490E16C002910D001B02046BDE843
:100B6000F04308470168C905D5D4016821F0100198
:100B7000016084F8358084F83490CCE7BDE8F883D0
:100B8000100000202DE9F041044600F09FF90646D0
:100B90005CB1022084F83500002584F834502068C8
:100BA000016821F0010101600DE00120BDE8F08144
:100BB00000F08CF9801B052805D9202060650320F2
:100BC00084F83500F2E720680068C007F0D1226899
:100BD000116820480140D4E901031843D4E90336E1
:100BE0003343184363691843A3691843E3691843FF
:100BF000236A18430843616A042903D1D4E90B131B
:100C000019430843106020684069666A20F00701B4
:100C100030460E43012704280CD1A06A0643E06A3F
:100C200040B12046FFF720FD20B14020606584F8E8
:100C30003570BAE7206846612046FFF701FD94F859
:100C40005C203F2191408160656584F8357000200B
:100C5000ACE700003F8010F02DE9F0410446866DBE
:100C600090F83400002501280DD0012084F83400CC
:100C700094F835700020012F07D084F83400022545
:100C80002846BDE8F0810220FBE7022784F8357092
:100C900060652046FFF712FD94F85C103F20884005
:100CA000B0602068016841F016010160206C20B13D
:100CB0002068016841F0080101602068016841F086
:100CC00001010160DCE77047044910B50A6802427F
:100CD00002D00860FFF7F7FF10BD0000143C014090
:100CE0002DE9F84FDFF8B8A10022012403254FF0C9
:100CF0000F090AF1040BAAF1040E00BF0B6804FAF5
:100D000002F63340B34273D10F7907F00307012F86
:100D100001D0022F16D187684FEA420805FA08FC75
:100D200027EA0C07D1F80CC00CFA08FC4CEA070CB7
:100D3000C0F808C04768B7430E79C6F3001696405E
:100D40003E4346600E79F643B6070DD0C76856009D
:100D500005FA06FC27EA0C07D1F808C00CFA06FCD5
:100D60004CEA070CC0F80CC00E7906F00306022E00
:100D700010D1D60800EB8608D8F8206057074FEA54
:100D8000D76C09FA0CF7BE430F6907FA0CF7374323
:100D9000C8F8207006684FEA420C05FA0CF7BE430B
:100DA0000F7907F0030707FA0CF7374307604E681F
:100DB00016F4403F6DD03B4E376847F480473760AC
:100DC000366822F0030706F480460096364E07EB9D
:100DD000060CDCF8086897073F0F09FA07F826EABF
:100DE0000806DFF8C880404503D14FF000081EE038
:100DF0004FE0DFF8BC80404502D14FF0010816E01B
:100E0000DFF8B080404502D14FF002080FE0DFF874
:100E1000A880404502D14FF0030808E0DFF89C802D
:100E2000404502D14FF0040801E04FF0070808FAEE
:100E300007F848EA0608CCF80888DAF80060574650
:100E4000D1F804C09E435FEACC2C00D51E433E601F
:100E5000DBF800605F46D1F804C09E435FEA8C2C4B
:100E600000D51E433E60DEF800607746D1F804C02E
:100E70009E435FEA8C3C00D51E433E60084F083F0E
:100E80003E68D1F804C09E435FEACC3C00D51E43C7
:100E90003E60521C102AFFF431AFBDE8F88F00000D
:100EA000083C01404438024000300140000002404C
:100EB0000004024000080240000C02400010024002
:100EC0000AB1816170470904FBE7000001488068AE
:100ED0007047000004000020024881680278114435
:100EE00081607047040000200B4810B5016841F490
:100EF00000710160016841F480610160016841F4A2
:100F000080710160032000F099F80F2000F006F8CE
:100F100000F04AF8002010BD003C024030B5054604
:100F20001C4887B00024016841F00101016000689D
:100F300006A900F00100009001A800F0D5F900F02A
:100F400003FA1549154AB0FBF1F11548491E026034
:100F500040F2E732C0E90324C0E90114846100F0E3
:100F60009BFF040012D10E4800F0C4FF04000DD115
:100F7000192000F035F8102D07D20022294619203B
:100F800000F03CF80748056000E0012407B0204667
:100F900030BD00004438024040420F0000000140D4
:100FA0006C000020080000200C4882B0016841F469
:100FB00080410160006800F4804000900748001FF5
:100FC000016841F0805101600068002200F080500B
:100FD00000900F21901E02B000F010B8443802407B
:100FE000002809DB00F01F02012191404009800028
:100FF00000F1E020C0F8001170470000F0B40E4B83
:101000001B680C46C3F30223C3F10705042D00D966
:101010000425191D072901D2002300E0DB1E01264B
:1010200006FA05F1491E214099409E40761E164061
:101030003143F0BC02F037BA0CED00E0064900F095
:10104000070208684FF6FF03184040EA0220034AEF
:1010500010430860704700000CED00E00000FA0546
:101060002DE9F843044600684FF00109C1074FF02D
:10107000000601D1400729D5DFF82081C8F8686053
:10108000FFF724FF0746464D05E000BFFFF71EFFB0
:10109000C01B022859D828680001F7D4A068217B1A
:1010A000800140EA0170616808433D49843108606D
:1010B000C8F86890FFF70AFF074604E0FFF706FF4D
:1010C000C01B022841D828680001F7D52078800786
:1010D00052D533484030016841F0805101600068CA
:1010E000304D00F080500090286840F480702860F7
:1010F000FFF7ECFE074604E0FFF7E8FEC01B0228FE
:1011000023D82868C005F7D5254D7035286810F418
:10111000407020D0218A01F4407181421BD02868A0
:10112000214920F44070C1F800900E6028602868C2
:10113000C00710D0FFF7CAFE064641F2883707E025
:10114000FFF7C4FE801BB84202D90320BDE8F88334
:1011500028688007F4D521691148C1F301220830BD
:10116000032A12D0016821F4F81101602868218A4D
:10117000C1F30B01084328602078000703D50B4911
:10118000207DC1F8E0010020E0E70268084B22F46E
:10119000F81219400A430260E8E7000000004742E5
:1011A0000038024000700040400E474200104742A5
:1011B000FFFCFF0F2DE9F0470E46050065D0DFF874
:1011C0001481D8F80000F7B200F00700B04207D24F
:1011D00088F80070D8F8000000F00700B04254D141
:1011E00028683D4C810712D5400703D5206840F49C
:1011F000E05020602878000703D5206840F4604064
:1012000020602068A96820F0F0000843206028785A
:10121000C0072DD0304968680839012812D002284B
:1012200013D0032811D00968890700292DDA216815
:1012300021F0030101432160FFF748FE814641F29E
:10124000883A0EE009688903EFE709688901ECE74D
:10125000FFF73CFEA0EB0901514502D90320BDE890
:10126000F0872068696800F00C00B0EB810FEFD1C7
:10127000D8F80010404601F00701B14207D90770C5
:10128000006800F00700B04201D00120E7E72878AD
:10129000400705D52068E96820F4E0500843206045
:1012A0002878000706D52068296920F4604040EAC4
:1012B000C100206000F058F82168084AC1F303110A
:1012C000515CC8400649086006480068FFF726FEE2
:1012D0000020C4E7003C0240083802408A3700087A
:1012E00010000020080000200F2202600C4A136842
:1012F00003F003034360136803F0F0038360136893
:1013000003F4E053C36012684FF4E05303EAD202DF
:1013100002610448006800F00700086070470000A0
:1013200008380240003C024004480549006809684A
:10133000044AC1F38221515CC8407047100000206C
:10134000083802409A3700080448054900680968CF
:10135000044AC1F34231515CC8407047100000207C
:10136000083802409A370008154810B5006810F098
:101370000C02144813D01449042A0FD0082A0ED1A5
:101380000F4C241F2268236802F03F025B0207D53E
:101390002068C0F38810A0FB010106E0084610BDDC
:1013A0002168C1F38811A1FB00010023FEF7C4FFEF
:1013B0002168C1F30141491C4900B0FBF1F010BDA7
:1013C000083802400024F40040787D012DE9F84FF0
:1013D00004006ED02078DFF84C93C007A9F1040513
:1013E0004AD009F104000168C1F38101012908D044
:1013F0000068C0F3810002280AD1D9F80000400239
:1014000006D52868800337D560680028E1D033E02E
:101410006068B0F5803F10D0B0F5A02F286810D0DC
:1014200020F480302860286820F4802028606068DC
:10143000A8B1FFF74BFD06460DE0286840F4803068
:10144000F4E740F480202860F7E700BFFFF73EFD97
:10145000801B642873D828688003F7D50CE0FFF759
:1014600035FD064605E000BFFFF730FD801B642810
:10147000F0D828688003F7D42078DFF8AC828007A2
:101480004FF0000A3ED5A748001D016811F00C0F6F
:1014900008D00068C0F3810002280BD1D9F8000001
:1014A000400207D42868800716D5E068012800D1DB
:1014B00012E033E1E068B8B10120C8F80000FFF79E
:1014C00005FD064605E000BFFFF700FD801B022872
:1014D000C0D828688007F7D52868216920F0F8006F
:1014E00040EAC10028600DE0C8F800A0FFF7EEFC5C
:1014F000064604E0FFF7EAFC801B02281FD8286894
:101500008007F7D42078000722D5864F8748616985
:10151000703771B101210160FFF7D8FC064604E085
:10152000FFF7D4FC801B022809D838688007F7D55C
:101530000EE0C0F800A0FFF7C9FC064605E082E017
:10154000FFF7C4FC801B02287DD838688007F7D4D9
:101550002078400768D5DFF8CCB100270BF13C0BB1
:10156000DBF80000C0000BD4DBF8001041F0805124
:10157000CBF80010DBF80000012700F0805000904D
:101580006B4E3068C00510D4306840F48070306015
:10159000FFF79CFC009005E0FFF798FC0099401ACB
:1015A000022850D83068C005F6D55E4EA0686C366B
:1015B00001280FD00528306810D020F001003060DD
:1015C000306820F004003060A068B8B1FFF77EFCFE
:1015D00000900FE0306840F00100F4E740F00400B4
:1015E0003060F7E7FFF772FC0099411A41F288304A
:1015F000814266D830688007F4D50EE0FFF766FCBC
:10160000009007E0FFF762FC0099411A41F2883030
:10161000814256D830688007F4D42FB1DBF800102F
:1016200021F08051CBF80010A069C8B33D49091DD5
:101630000968C1F3810102294AD00228504607D027
:10164000C8F8600000E03CE0FFF740FC04463BE0E7
:101650004746C8F86000FFF739FC064605E000BFC2
:10166000FFF734FC801B02282BD828688001F7D4B0
:10167000D4E907010843A16A2E4A490802EB014157
:10168000626A41EA8211084394F82C1040EA016131
:10169000C9F8001001203866FFF718FC044606E080
:1016A0003EE000BFFFF712FC001B022809D82868A3
:1016B0008001F7D534E000BFFFF708FC001B0228CB
:1016C00002D90320BDE8F88F28688001F4D427E010
:1016D0000128F7D0D9F80000E26900F480019142B6
:1016E0001CD1226A00F03F01914217D147F6C07128
:1016F000626A0140B1EB821F10D1A26A4FF0FF3342
:1017000000F4403103EB5202B1EB024F06D194F8E2
:101710002C1000F07060B0EB016F01D00120D1E718
:101720000020CFE70438024000004742800E4742C5
:10173000007000400000FFFF0068503050F82100AA
:1017400070470068503040F8212070472DE9F84379
:1017500089463D494FF4FA4C4FF47A730F68B7FB52
:10176000FCF159430091017F012965D001250577DE
:10177000022141770368CA215962036853215962E3
:1017800001688B684FF0FF045FEA43584FF0000395
:101790004FF003060CD500BFDDF80080B8F101085A
:1017A000CDF800804AD0D1F80C805FEA4878F3D4B5
:1017B000D1F8088028F48068C1F808800168D1F861
:1017C0000C8008F0800868F49068C1F80C80B7FBC2
:1017D000FCF14FF47A77794300910168009F7F1EF6
:1017E00000972BD0CF687F07F8D58E6826F00706C4
:1017F0008E6001688E6816438E600268C2F814908D
:1018000012490A6842F480020A60104908310A68E5
:1018100042F480020A6001688A6842F480428A6069
:1018200001688A6842F480628A6001684C62457788
:1018300003770020BDE8F8830220FBE74C6246777F
:1018400003770320F6E7000010000020003C014071
:101850007047000010B50A4904464FF48000086044
:101860002068C168490508D5C16801F0800161F4AC
:101870009061C1602046FFF7EBFF0120607710BD4B
:10188000143C014010B5040002D0607F10B106E0A6
:10189000012010BD00202077204600F041F80220F2
:1018A00060772068C168C943C90632D5CA21416240
:1018B000216853204862204601F0BEF920BB206811
:1018C0008168164A11408160216888686268104307
:1018D000D4E904231A43104388602168E068086152
:1018E00020680169228941EA02410161204601F034
:1018F000C7F948B921680A6C22F480220A64216879
:101900000A6CA3691A430A642268FF21516208B174
:1019100010BD00200121617710BD0000BFFF8FFFC7
:1019200010B586B0044618216846FEF77CFD0C49C8
:101930002068884211D10B490120086002200090E4
:10194000C00104906846FFF78BFB002205210320AD
:10195000FFF754FB0320FFF743FB06B010BD000068
:10196000002800403C0E474270B50446007F0B46FD
:10197000012819D00126267702206077B2B1987825
:10198000D97840EA014558781978000240EA413098
:1019900005432168CA2048622168532048622046D6
:1019A00001F04AF9D0B122E0022070BD5878C1069A
:1019B00003D500F0EF000A305870D87801F030F904
:1019C0000204587801F02CF942EA0022987801F0DC
:1019D00027F90243187842EA4035DAE7074805401C
:1019E00020684560204601F04BF900B9667722680F
:1019F000FF2151620021217770BD00003FFFFF00F1
:101A00002DE9F0410446007F0D46012823D04FF018
:101A1000010884F81C800220607720680027806815
:101A20004FEA4060D2B1002800DBEF70A878297837
:101A300040EA01466878E978000240EA81500643AE
:101A40002168CA204862216853204862204601F07C
:101A5000F3F8B8B12CE00220BDE8F081002800DBEB
:101A6000EF70287801F0DCF80204687801F0D8F80B
:101A700042EA0022A87801F0D3F80243E87842EA6B
:101A80008056DDE70D4806402068066020688168C2
:101A900021F480218160D5E90301084321688A6827
:101AA00010438860204601F0EBF808B984F81D80E7
:101AB0002268FF2151622777CEE700007F7F7F00F9
:101AC00070B504460B482168C860FFF7FFF905466A
:101AD0004FF47A7607E000BFFFF7F8F9401BB042F9
:101AE00001D9032070BD2068C0688006F4D50020AD
:101AF00070BD00005F3F010070B5040009D0606A4E
:101B0000002540B125616561A56294F8510040B19E
:101B10000CE0012070BD6068B0F5827FF4D0E56113
:101B2000F2E784F85050204600F044F8022084F890
:101B300051002068016821F040010160A0882189DE
:101B400000F4827001F404410843A18901F40061AA
:101B50000843217C01F002010843217D01F00101CD
:101B60000843218B01F400710843217F01F0380103
:101B7000084394F8201001F080010843218D01F4FE
:101B80000051084321680860A069042101EA10405F
:101B900094F8241001F0100108432168486020687F
:101BA000C16921F40061C1616565012084F85100BB
:101BB000002070BD70B586B0064614216846FEF759
:101BC00032FC26493068884245D125480025016805
:101BD00041F4805101600068214900F480501439BB
:101BE0000590086840F480000860086800F48000F0
:101BF0000590086840F0020008600868002200F0C4
:101C00000200059005213A20FFF7F8F93A20FFF786
:101C1000E7F9282000900220CDE901050320039078
:101C20000520049069460F48FFF75AF80F4C0E48FC
:101C300020604FF0806060604020C4E90205000130
:101C4000C4E90405A561E561256220466562FEF7E9
:101C500099FFB464A66306B070BD00000030014077
:101C600044380240000402404064024068070020FB
:101C70002DE9F84F984616468A460446FFF726F99E
:101C8000814694F8510001281ED1BAF1000F73D09B
:101C9000002E71D094F85000012815D0012784F847
:101CA0005070032084F8510000256565C4F830A009
:101CB000A686E686A563A587E58765642564A06892
:101CC000B0F5004F03D00CE00220BDE8F88F20688B
:101CD000016821F0400101602068016841F4804101
:101CE000016020680168490603D4016841F04001A1
:101CF0000160E068B0F5006F606803D048B3012E62
:101D000027D047E008B1012E1FD1206B2168008841
:101D1000C86006E020688168890709D5216B0988B9
:101D2000C160206B801C2063E08E401EE0860CE0CA
:101D3000FFF7CCF8A0EB0901414503D3B8F1FF3F11
:101D400003D035E0B8F1000F32D0E08E0028E1D1A9
:101D500023E0206B21680078087306E02068816822
:101D600089070AD5216B09780173206B401C206319
:101D7000E08E401EE0860DE02BE0FFF7A7F8A0EB19
:101D80000901414503D3B8F1FF3F03D010E0B8F19A
:101D9000000F0DD0E08E0028E0D14A464146204693
:101DA00000F08AFF08B120206065A06830B109E02A
:101DB00084F8517084F85050032086E72068C16889
:101DC0008068009084F8517004F8505F60680028C3
:101DD000F3D0012079E74FF0E0210428086903D00F
:101DE00020F004000861704740F00400FAE710B5E5
:101DF000401EB0F1807F01D3012010BD4FF0E024E0
:101E000060610F21601701F04EFB0020A0610720E8
:101E10002061002010BD70477047000070B590F839
:101E20003C20012A2CD0012480F83C40022280F87A
:101E30003D2003685A689D6822F070060A683243A4
:101E40005A60104B02689A420ED0B2F1804F0BD00C
:101E50000D4B9A4208D00D4B9A4205D00C4B9A423A
:101E600002D00C4B9A4204D1496825F080031943F3
:101E7000916080F83D40002180F83C10084670BD1C
:101E8000022070BD00000140000400400008004036
:101E9000000C00400040014010B5040003D094F84D
:101EA0003D0010B107E0012010BD002084F83C0087
:101EB000204600F01EF8022084F83D00211D206815
:101EC00000F0EAFF012084F8460084F83E0084F820
:101ED0003F0084F8400084F8410084F8420084F810
:101EE000430084F8440084F8450084F83D00002055
:101EF00010BD704790F83D10012901D001207047B6
:101F0000022180F83D100168CA6842F00102CA60EF
:101F100000680E4988420ED0B0F1804F0BD00C49BA
:101F2000884208D00B49884205D00B49884202D02C
:101F30000A49884204D1816801F00701062903D0CB
:101F4000016841F00101016000207047000001407C
:101F50000004004000080040000C00400040014028
:101F600070472DE9F04104460068C66805694FF0E6
:101F70000007A90713D5B10711D5F91E016101208A
:101F80002077206880698007204602D0FFF7E8FFAD
:101F900004E000F07EF8204600F042F92777680759
:101FA00016D5700714D521686FF00400086102206F
:101FB00020772068806910F4407F204602D0FFF728
:101FC000CFFF04E000F065F8204600F029F92777FC
:101FD000280715D5300713D521686FF00800086170
:101FE000042020772068C0698007204602D0FFF7D0
:101FF000B7FF04E000F04DF8204600F011F9277714
:10200000E80616D5F00614D521686FF010000861B7
:10201000082020772068C06910F4407F204602D055
:10202000FFF79EFF04E000F034F8204600F0F8F8D7
:102030002777E80708D0F00706D021686FF0010085
:102040000861204600F046F9280608D5300606D576
:1020500021686FF0800008612046FFF7DCFE68060B
:1020600008D5700606D521686FF04000086120464B
:1020700000F03AF9A8060AD5B00608D521686FF035
:10208000200008612046BDE8F041FFF7C5BEBDE86D
:10209000F081704770B5044690F83C0000260D466C
:1020A00001280FD0012084F83C006AB1042A1DD019
:1020B000082A2FD00C2A3FD00126002084F83C00AB
:1020C000304670BD022070BD206800F045FF2068DA
:1020D000816941F0080181612068816921F0040172
:1020E0008161206881692A69114311E0206800F04C
:1020F0005BFF2068816941F400618161206881692A
:1021000021F480618161206881692A6941EA0221A4
:102110008161D2E7206800F073FF2068C16941F057
:102120000801C1612068C16921F00401C161206812
:10213000C1692A69114311E0206800F08DFF206811
:10214000C16941F40061C1612068C16921F4806105
:10215000C1612068C1692A6941EA0221C161ACE715
:1021600010B5040003D094F83D0010B107E0012041
:1021700010BD002084F83C00204600F01FF802202B
:1021800084F83D00211D206800F086FE012084F8BF
:10219000460084F83E0084F83F0084F8400084F84C
:1021A000410084F8420084F8430084F8440084F835
:1021B000450084F83D00002010BD000010B5006807
:1021C000144986B0884222D113480024016841F0A6
:1021D00002010160006800F0020005900E4810380E
:1021E000016841F0020101600068142100F0020062
:1021F00005906846FEF717F9012000900220CDE90E
:102200000104CDE9034069460448FEF769FD06B0C4
:1022100010BD0000000400404038024000040240AD
:102220007047000010B50446022249B104290ED0BF
:10223000082913D094F84100012816D0012010BDC0
:1022400094F83E000128F9D184F83E200FE094F87C
:102250003F000128F2D184F83F2008E094F84000C4
:102260000128EBD184F8402001E084F841200122CC
:10227000206800F063FE12492068884203D1426C56
:1022800042F400424264206888420ED0B0F1804F90
:102290000BD00C49884208D00B49884205D00B4925
:1022A000884202D00A49884204D1816801F00701BE
:1022B000062903D0016841F001010160002010BD32
:1022C000000001400004004000080040000C0040F5
:1022D0000040014000680349884201D1FEF7FCBD7F
:1022E00070470000000001407047704710B5044679
:1022F0000068406994F84110C0F3C010212911D141
:1023000080B12068143050E8001F21F0800140E8BF
:102310000012002AF5D1A06B08B1FEF707FB20469A
:1023200000F062FF2068406994F84210C0F380100A
:10233000222911D180B12068143050E8001F21F00B
:10234000400140E80012002AF5D1E06B08B1FEF729
:10235000EDFA204600F021FF002010BD704700007C
:10236000F8B5016804460868CA684B6910F00F0F99
:102370004FF0000559D003F0010602F4907737437F
:1023800065D0C10705D0D10503D5616C41F00101CD
:102390006164410705D5D90703D0616C41F00201A2
:1023A0006164810705D5D90703D0616C41F0040150
:1023B0006164010707D502F02001314303D0616C4D
:1023C00041F008016164616C00293AD0800604D5AF
:1023D000900602D5204600F015FF20684069616C28
:1023E000C0F38010090700D460B3204600F0D5FE8A
:1023F00020684069400621D52068143050E8001F4D
:1024000021F0400140E80012002AF5D1E06BA8B1AC
:102410006E490165E06BFEF7D2FA002811D0E06B3F
:10242000016D01B0BDE8F040084783060FD5930663
:102430000DD52046BDE8F84000F0E4BE2046FFF789
:102440008DFFF8BD2046FFF789FF6564F8BD266B58
:102450002023012E7DD1C6067BD5D60679D5086806
:102460004868009048694FF00206400641D5E16B8C
:10247000086840680004000CE8D0A28D8242E5D9CB
:10248000E085C869B0F5807F2DD020680C3050E819
:10249000001F21F4807140E80012002AF5D1206865
:1024A000143050E8001F21F0010140E80012002A1A
:1024B000F5D12068143050E8001F21F0400140E8B9
:1024C0000012002AF5D184F84230256320680C30D0
:1024D00050E8001F21F0100140E80012002AF5D159
:1024E000E06BFEF723FA6663A08DE18D401A81B29E
:1024F0002AE0A08DE18D401A81B2E08D0028A5D0A0
:102500000029A3D022680C3252E8000F20F490700A
:1025100042E80007002FF5D12068143050E8002F62
:1025200022F0010240E80027002FF5D184F8423064
:10253000256320680C3050E8002F22F0100240E89C
:102540000023002BF5D166632046FFF7CEFEF8BDD1
:10255000FFE705062BD5150629D594F8410021285B
:10256000F5D1A068B0F5805F01D12069B0B1206AD3
:10257000411C2162216800784860E08C401E000404
:10258000000CE084E3D12068C16821F08001C160C3
:102590002068C16841F04001C160D8E7206A008826
:1025A000C0F308004860206A801C2062E5E740060E
:1025B000CDD55006CBD5CA68204622F04002CA606D
:1025C00084F8413000F0CAF8C1E700009D300008EF
:1025D00070B5040004D094F84100002510B106E065
:1025E000012070BD84F84050204600F023F82420DC
:1025F00084F841002068C16821F40051C160204680
:1026000000F062FE2068016921F4904101612068B8
:10261000416921F02A0141612068C16841F40051FB
:10262000C1606564202084F8410084F8420065633D
:10263000002070BD2DE9F04186B0064614216846A1
:10264000FDF7F1FE3849306888426AD137480024E6
:10265000016841F010010160006800F01000059071
:1026600032481438016841F480010160016801F4C6
:1026700080010591016841F00101016000680022BC
:1026800000F00100059005214420FEF7B7FC44202E
:10269000FEF7A6FC002205214620FEF7AFFC4620EF
:1026A000FEF79EFC4FF4C06000900220CDE90104CB
:1026B000032003900720049069461D48FEF710FB95
:1026C0001D4D1C484FF000672860C5E901744FF4A8
:1026D0008068C5E903486C61AC61EC612C622846F6
:1026E0006C62FEF74FFAF5631248AE636035303026
:1026F000E5E802074020A5E811010F4845F8144914
:102700006030AC61EC612C626C62FEF73BFAB56341
:10271000002205212520AE63FEF770FC2520FEF780
:102720005FFC06B0BDE8F081001001404438024073
:1027300000000240886402400806002090F8423001
:10274000202B01D00220704721B11AB1002303636E
:1027500000F040BE01207047704770477047FEE7A9
:102760002DE9F04104461D4616460F462A2000F08A
:1027700063F9204600F046F9304600F043F92B207B
:1027800000F05AF9384600F03DF9284600F03AF9D1
:10279000BDE8F0412C2000F04FB92DE9F04780460C
:1027A0001F4603F1130083B21646501E82B20C4638
:1027B00001F1140081B24046DDF82090FFF7D0FF10
:1027C0000AE0454604E0484600F01CF96D1CADB235
:1027D000B542F8D3641CA4B2BC42F2D3BDE8F08782
:1027E00030B587B014216846FDF71DFE0D4801681D
:1027F00041F00201016000684FF4607400F00200D3
:1028000005900120CDE900400320074D0390694663
:102810002846FEF765FA012221462846FEF750FBBE
:1028200007B030BD303802400004024010B5FFF759
:10283000D7FF684C00224FF480712046FEF740FB22
:10284000002280212046FEF73BFB642000F052FE70
:10285000012280212046FEF733FB642000F04AFE6F
:10286000112000F0E9F8782000F044FE362000F056
:10287000E3F8C02000F0D6F83A2000F0DDF805209B
:1028800000F0D0F8B22000F0D7F80C2000F0CAF821
:102890000C2000F0C7F8002000F0C4F8332000F04E
:1028A000C1F8332000F0BEF8B72000F0C5F835209D
:1028B00000F0B8F8BB2000F0BFF8192000F0B2F823
:1028C000C02000F0B9F82C2000F0ACF8C22000F0D5
:1028D000B3F8012000F0A6F8C32000F0ADF81220F4
:1028E00000F0A0F8C42000F0A7F8202000F09AF82B
:1028F000C62000F0A1F80F2000F094F8D02000F0DE
:102900009BF8A42000F08EF8A12000F08BF8E020C6
:1029100000F092F8D02000F085F8042000F082F852
:102920000D2000F07FF8112000F07CF8132000F05B
:1029300079F82B2000F076F83F2000F073F854204F
:1029400000F070F84C2000F06DF8182000F06AF8E4
:102950000D2000F067F80B2000F064F81F2000F055
:1029600061F8232000F05EF8E12000F065F8D02047
:1029700000F058F8042000F055F80C2000F052F850
:10298000112000F04FF8132000F04CF82C2000F03C
:1029900049F83F2000F046F8442000F043F8512069
:1029A00000F040F82F2000F03DF81F2000F03AF82A
:1029B0001F2000F037F8202000F034F8232000F02A
:1029C00031F8212000F038F8BDE81040292000F04F
:1029D00033B800000004024008210148FFF722BC80
:1029E00078050020411F5F2909D84FF4967110FB2C
:1029F00001F06421B0FBF1F001490968C863704738
:102A00007805002008B5010A8DF800108DF8010046
:102A10000123022269460248FFF72AF908BD000097
:102A20001007002001B501231A4669460148FFF747
:102A30001FF908BD1007002031B50A4D4FF400748E
:102A4000002221462846FEF73BFA01231A46694632
:102A50000548FFF70DF9012221462846FEF730FA16
:102A600038BD000000040240100700207FB500249C
:102A700011480094019402940E49039401604FF4AC
:102A80008031C0E901140461047680F820400B49CC
:102A9000C0E90A140125C561C46080F83040456171
:102AA000FDF7EAFE0095CDE9015469460248FDF7BD
:102AB00031FE7FBD00200140C80600200100000F4C
:102AC00030B587B014216846FDF7ADFC22480024DC
:102AD00020490594C0E900147F218160FF21C0E9ED
:102AE000031444618461FEF7CDFE00211A48FEF70D
:102AF00023FE45F25005A8422AD019208DF8000087
:102B000014208DF801008DF80240039401226946DB
:102B100011480494FEF774FF07208DF8140011206B
:102B20008DF8150003208DF8160024208DF817006D
:102B3000012205A90848FEF717FF00224FF4FA61A9
:102B40000548FEF703FE2A4600210348FEF7F9FD7B
:102B500007B030BD00280040C80700200E4810B55F
:102B60000C4901604FF482714160002102228160B2
:102B7000C0E90312012242615202C0E9062101624A
:102B8000416281620A21C162FEF7B6FF002800D0CF
:102B9000012010BD003001401007002010B58AB0A0
:102BA000002407941C2168460894FDF73CFC10485B
:102BB0000E4901606321C0E901144FF49671C0E928
:102BC00003148461FFF7CCFA079407A90848089416
:102BD000FFF724F96020CDE9000402940822694639
:102BE00003480494FFF756FA0AB010BD00040040F1
:102BF000780500200848074901604FF4E131416041
:102C0000002181600C22C160C0E904128161C161B0
:102C1000FFF7DEBC00100140C0050020FEE7FEE724
:102C2000002102E00A38C0B2491C0A28FAD209077A
:102C300040EA1160704700002DE9F0410446006849
:102C40000025C168490618D4C16841F08001C160FF
:102C5000FEF73CF906464FF47A78042707E000BFF8
:102C6000FEF734F9801B404501D9677701252068BC
:102C7000C068400601D4002DF2D02846BDE8F0819E
:102C800070B5044600680025C16821F08001C1606C
:102C900020688068800606D42046FEF711FF10B138
:102CA000042060770125284670BD00000148FEF72A
:102CB000D1BD0000C8070020F8B515460E460B46EA
:102CC000009204460122022100F02CF8A0B913481A
:102CD00013490068B0FBF1F04FF47A71484300905B
:102CE0006068B0F5827F0DD13346002280212046F6
:102CF000009500F017F870B1606D40F0200060653D
:102D00000320F8BD009830B1401E00902068806814
:102D1000C0430006F6D50020F8BD000010000020DA
:102D200000366E012DE9F8431E469146884604465A
:102D3000089DFEF7CBF8401B351AFEF7C7F807468B
:102D400025480068C0F3CB30684338E0701C37D0AA
:102D5000FEF7BCF8C01BA84203D215B1009860B3BF
:102D60002CE02068416821F0E00141606068B0F526
:102D7000827F0BD1A068B0F5004F02D0B0F5806F14
:102D800004D12068016821F040010160A06AB0F51B
:102D9000005F09D12068016821F4005101602068BA
:102DA000016841F400510160012084F851000020C5
:102DB00084F850000320BDE8F8830025401E0090F1
:102DC0002068816838EA010004D000214945BDD15E
:102DD0000020F0E70121F9E71000002010B54FF0C6
:102DE000E020006900F04EFC012803D0BDE810404F
:102DF00000F032BC10BD000030B593B03021684601
:102E0000FDF711FB14210CA8FDF70DFB1948002458
:102E1000016841F080510160006800F0805011901D
:102E20001548016841F4404101600068022500F442
:102E30004040119006200090012002900390102045
:102E4000049006950820CDE907406420CDE90905E6
:102E500004200B906846FEF7B9FA0F20CDE90C0567
:102E6000E802CDE90E4003210CA81094FEF7A2F968
:102E700013B030BD40380240007000400248016885
:102E800041F470010160704788ED00E00148FFF7F0
:102E900068B800006C000020F0B50268204B214C9F
:102EA0009F03214D214E984207D0B84205D0A04241
:102EB00003D0A84201D0B04204D122F0700C4A687D
:102EC00042EA0C02984210D0B8420ED0A0420CD078
:102ED000A8420AD0B04208D0154CA04205D0154CEB
:102EE000A04202D0144CA04203D122F44074CA681C
:102EF00022434C6922F08002224302608A68C26247
:102F00000A688262984201D1096901630121416125
:102F10000169C90703D0016921F001010161F0BD18
:102F2000000001400004004000080040000C004088
:102F300000400140004401400048014010B501F04C
:102F40001F030121046A99408C430462016A9A407C
:102F50001143016210BD000030B5036A026A22F01D
:102F6000010202624268846924F073050C682C43F4
:102F700023F002058B682B430A4DA8420BD123F0A6
:102F80000805CB6822F440722B434D6923F00403FB
:102F900015438A692A434260846149684163036238
:102FA00030BD00000000014030B5026A036A23F022
:102FB00010030362436884690D6824F4E64444EA1C
:102FC00005248D6822F0200242EA05120B4DA8422A
:102FD0000ED1CD6822F0800242EA05124D6923F439
:102FE000406343EA85038D6922F0400243EA85038A
:102FF0004360846149688163026230BD0000014022
:1030000030B5036A026A22F4807202624268C469BF
:1030100023F4007324F073050C682C438D6843EA95
:1030200005230C4DA8420ED1CD6823F4006343EA7A
:1030300005234D6922F4405242EA05128D6923F4BA
:10304000806342EA05124260C4614968C163036259
:1030500030BD00000000014030B5046A026A22F46D
:10306000805202624268C3690D6823F4E64343EA72
:1030700005238D6824F4005444EA0534064DA84223
:1030800004D14D6922F4804242EA85124260C36154
:1030900049680164046230BD0000014010B5806BD6
:1030A0000021C185C184FFF759F910BD70B5846B4B
:1030B0002068406994F84110C0F3C0100025212910
:1030C00004D118B1E584204600F08EF820684069EC
:1030D00094F84210C0F38010222904D118B1E5857C
:1030E000204600F05AF8606C40F010006064204602
:1030F000FFF734F970BD10B50146806B09680968A7
:103100004FF00002C9052ED4C28501680C3151E888
:10311000003F23F4807341E80034002CF5D10168AE
:10312000143151E8003F23F0010341E80034002C42
:10313000F5D10168143151E8003F23F0400341E824
:103140000034002CF5D1202180F84210016B0129B8
:1031500009D101680C3151E8003F23F0100341E828
:103160000034002CF5D14263016B012902D0FFF736
:10317000F3FA10BD818DFFF7B8F810BD10B5806B64
:1031800001214163016B012902D0FFF7E6FA10BD6E
:10319000818D4908FFF7A9F810BD01680C3151E88D
:1031A000002F22F4907241E80023002BF5D1016832
:1031B000143151E8002F22F0010241E80023002BD6
:1031C000F5D1016B012909D101680C3151E8002FBB
:1031D00022F0100241E80023002BF5D1202180F8D5
:1031E000421000210163704701680C3151E8002F43
:1031F00022F0C00241E80023002BF5D1202180F805
:103200004110704708B590F84210222901D00220E1
:1032100008BD82684FF480539A4201D1016921B1FF
:10322000816A9A421BD04AB10AE00268816A5268F8
:10323000C2F308020A80816A891C08E0026972B13F
:103240000268526802F07F020A70816A491C81623A
:10325000C18D491E0904090CC18503D01BE0026819
:103260005268F1E70168CA6822F02002CA6001686A
:10327000CA6822F48072CA6001684A6922F00102B9
:103280004A61202180F8421000214163026B012A2B
:1032900003D0FFF761FA002008BD016301680C311B
:1032A00051E8002F22F0100241E80023002BF5D155
:1032B00001680A68D20602D50A6849680091818DC2
:1032C000FFF713F8E7E7000070B5044600680169EE
:1032D000E26821F44051114301612169A068E2696B
:1032E00008436169114308432168CA6849F20C63C5
:1032F0009A430243CA6020684169A26921F440717F
:103300001143416131492068884202D030498842E6
:1033100002D1FEF719F801E0FEF706F8E269002392
:10332000192164253226B2F5004F626828D0A0FB2F
:103330000101930F9200FCF7FFFF0146B0FBF5F08F
:103340006FF01802504301EB800006EB0010B0FB59
:10335000F5F000F0F002B1FBF5F002EB0012B1FB6A
:10336000F5F06FF01803584301EB800006EB0010F6
:10337000B0FBF5F000F00F0021681044886070BDCC
:10338000A0FB010192185B41FCF7D6FF0146B0FBA0
:10339000F5F00201B1FBF5F06FF01803584301EBB3
:1033A000800006EBC000B0FBF5F000F0F80002EB87
:1033B0004002B1FBF5F0584301EB800006EBC00082
:1033C000B0FBF5F000F00700D6E700000010014068
:1033D0000014014038B581620446828500201346FE
:1033E0006064222284F84220E56B1B4AEA63E56BA5
:1033F0001A4A2A64E56B1A4AEA64E26B10650A46C7
:103400002168E06B091DFDF727FC20680168406812
:103410000090206948B120680C3050E8001F41F44A
:10342000807140E80012002AF5D12068143050E87D
:10343000001F41F0010140E80012002AF5D1206888
:10344000143050E8001F41F0400140E80012002A0B
:10345000F5D1002038BD0000F73000087D310008AC
:10346000AD3000080C4810B500680168C943C906B2
:103470000DD40A4A012111706FF010010160064855
:10348000FEF734FF192206490348FFF757F9BDE854
:1034900010400148FEF764BFC00500200000002076
:1034A00050000020FEE70907090E002804DB00F1A8
:1034B000E02080F80014704700F00F0000F1E020D9
:1034C00080F8141D7047000010B50420FEF783FC3F
:1034D00006484FF47A710078B1FBF0F004490968AE
:1034E000BDE81040B1FBF0F0FEF781BC0400002005
:1034F0001000002070B5054600244FF47A7603E0F2
:10350000304600F004F8641CAC42F9D370BD70B5CD
:103510004FF0E0240022656964214843A169A36952
:103520008B42FCD002D2A1EB030102E0A5EB030623
:1035300031440A4419468242F1D370BD144908B59A
:1035400000200860FDF7D0FCFFF756FC62B6FFF7DD
:103550008DFAFFF7B5FAFFF701FBFFF71FFBFFF747
:1035600049FBFFF7B1FFFFF761F93220FFF73AFAA5
:10357000FFF732FA4BF64040002100904FF48C7375
:10358000F0220846FFF709F90A20FFF7B3FFFEE72C
:1035900008ED00E00648416B096829B1416BC96834
:1035A000C9684968816270474FF0FF31FAE700004F
:1035B00014000020D0E9013201699A60D0E90123AA
:1035C0005A604A68824201D182684A6000220261E0
:1035D0000868401E086008687047704742684A6083
:1035E00093688B6093685960916008610168491C19
:1035F00001607047164810B5016B11B10121C1611E
:1036000010BD0021C1610169124A01E0B9B1491E32
:1036100001EB810352F82330002BF7D001EB81033B
:1036200002EB830202F1080453685B685360A34213
:1036300001D15B685360DA680260016110BD5020FF
:1036400080F31188BFF34F8FBFF36F8FFEE7000049
:1036500014000020B400002010B5502080F3118821
:10366000BFF34F8FBFF36F8F00F01AF818B1044902
:103670004FF080500860002080F3118810BD0000DA
:1036800004ED00E00548416919B1006B18B1002054
:10369000704701207047022070470000140000208E
:1036A0002DE9F041324C0027206B38B1A069401C55
:1036B000A061FFF792FF3846BDE8F081E668761C0E
:1036C000E66013D1606B006838B1502080F3118838
:1036D000BFF34F8FBFF36F8FFEE7606BA16B61632A
:1036E000A063206A401C2062FFF754FFA06ADFF845
:1036F0008480864209D3606B006890B1606BC068BB
:10370000C568686886420FD2A0622068C06A00EB74
:10371000800158F82100012800D90127A069F8B1DB
:1037200020E04FF0FF30EFE7281DFFF743FFA86AC6
:1037300018B105F11800FFF73DFFE86A21698842DA
:1037400000D9206100EB800108EB8100291DFFF703
:1037500045FFE86A2168C96A8842CCD30127CAE7D5
:10376000FFF73BFFE0690028A5D00127A3E7000091
:1037700014000020B40000204FF04070E1EE100A69
:10378000704700061016000610160000000000002A
:1037900000000102030406070809000000000102FE
:1037A00003040000C437000800000020500000009F
:1037B000D40100081438000850000020F80D000063
:1037C000F0010008000000000100000010000000EF
:1037D000000000000024F4000000000000000000D1
:1037E00000000000000000000000000000000000D9
:1037F00000000000000000000000000000000000C9
:1038000000000000000000000000000000000000B8
:0438100000000000B4
:040000050800019955
:00000001FF
